{
  "contractName": "WalletAccountFactory",
  "abi": [
    {
      "inputs": [
        {
          "internalType": "contract IEntryPoint",
          "name": "_entryPoint",
          "type": "address"
        }
      ],
      "stateMutability": "nonpayable",
      "type": "constructor"
    },
    {
      "inputs": [],
      "name": "accountImplementation",
      "outputs": [
        {
          "internalType": "contract WalletAccount",
          "name": "",
          "type": "address"
        }
      ],
      "stateMutability": "view",
      "type": "function",
      "constant": true
    },
    {
      "inputs": [
        {
          "internalType": "address",
          "name": "owner",
          "type": "address"
        },
        {
          "internalType": "uint256",
          "name": "salt",
          "type": "uint256"
        }
      ],
      "name": "createAccount",
      "outputs": [
        {
          "internalType": "contract WalletAccount",
          "name": "ret",
          "type": "address"
        }
      ],
      "stateMutability": "nonpayable",
      "type": "function"
    },
    {
      "inputs": [
        {
          "internalType": "address",
          "name": "owner",
          "type": "address"
        },
        {
          "internalType": "uint256",
          "name": "salt",
          "type": "uint256"
        }
      ],
      "name": "getAddress",
      "outputs": [
        {
          "internalType": "address",
          "name": "",
          "type": "address"
        }
      ],
      "stateMutability": "view",
      "type": "function",
      "constant": true
    }
  ],
  "bytecode": "0x60a060405234801561001057600080fd5b5060405162004f8938038062004f8983398181016040528101906100349190610124565b80604051610041906100a1565b61004b91906101b0565b604051809103906000f080158015610067573d6000803e3d6000fd5b5073ffffffffffffffffffffffffffffffffffffffff1660808173ffffffffffffffffffffffffffffffffffffffff1681525050506101cb565b613eb680620010d383390190565b600080fd5b600073ffffffffffffffffffffffffffffffffffffffff82169050919050565b60006100df826100b4565b9050919050565b60006100f1826100d4565b9050919050565b610101816100e6565b811461010c57600080fd5b50565b60008151905061011e816100f8565b92915050565b60006020828403121561013a576101396100af565b5b60006101488482850161010f565b91505092915050565b6000819050919050565b600061017661017161016c846100b4565b610151565b6100b4565b9050919050565b60006101888261015b565b9050919050565b600061019a8261017d565b9050919050565b6101aa8161018f565b82525050565b60006020820190506101c560008301846101a1565b92915050565b608051610edf620001f46000396000818160db0152818161014501526102360152610edf6000f3fe60806040523480156200001157600080fd5b5060043610620000465760003560e01c806311464fbe146200004b5780635fbfb9cf146200006d5780638cb84e1814620000a3575b600080fd5b62000055620000d9565b604051620000649190620003e1565b60405180910390f35b6200008b600480360381019062000085919062000483565b620000fd565b6040516200009a9190620003e1565b60405180910390f35b620000c16004803603810190620000bb919062000483565b62000204565b604051620000d09190620004db565b60405180910390f35b7f000000000000000000000000000000000000000000000000000000000000000081565b6000806200010c848462000204565b905060008173ffffffffffffffffffffffffffffffffffffffff163b905060008111156200013f578192505050620001fe565b8360001b7f000000000000000000000000000000000000000000000000000000000000000086604051602401620001779190620004db565b60405160208183030381529060405263c4d66de860e01b6020820180517bffffffffffffffffffffffffffffffffffffffffffffffffffffffff8381831617835250505050604051620001ca9062000348565b620001d792919062000592565b8190604051809103906000f5905080158015620001f8573d6000803e3d6000fd5b50925050505b92915050565b6000620002fe8260001b60405180602001620002209062000348565b6020820181038252601f19601f820116604052507f000000000000000000000000000000000000000000000000000000000000000086604051602401620002689190620004db565b60405160208183030381529060405263c4d66de860e01b6020820180517bffffffffffffffffffffffffffffffffffffffffffffffffffffffff8381831617835250505050604051602001620002c092919062000592565b604051602081830303815290604052604051602001620002e292919062000608565b6040516020818303038152906040528051906020012062000306565b905092915050565b6000620003158383306200031d565b905092915050565b6000604051836040820152846020820152828152600b810160ff815360558120925050509392505050565b610879806200063183390190565b600073ffffffffffffffffffffffffffffffffffffffff82169050919050565b6000819050919050565b6000620003a16200039b620003958462000356565b62000376565b62000356565b9050919050565b6000620003b58262000380565b9050919050565b6000620003c982620003a8565b9050919050565b620003db81620003bc565b82525050565b6000602082019050620003f86000830184620003d0565b92915050565b600080fd5b6000620004108262000356565b9050919050565b620004228162000403565b81146200042e57600080fd5b50565b600081359050620004428162000417565b92915050565b6000819050919050565b6200045d8162000448565b81146200046957600080fd5b50565b6000813590506200047d8162000452565b92915050565b600080604083850312156200049d576200049c620003fe565b5b6000620004ad8582860162000431565b9250506020620004c0858286016200046c565b9150509250929050565b620004d58162000403565b82525050565b6000602082019050620004f26000830184620004ca565b92915050565b600081519050919050565b600082825260208201905092915050565b60005b838110156200053457808201518184015260208101905062000517565b60008484015250505050565b6000601f19601f8301169050919050565b60006200055e82620004f8565b6200056a818562000503565b93506200057c81856020860162000514565b620005878162000540565b840191505092915050565b6000604082019050620005a96000830185620004ca565b8181036020830152620005bd818462000551565b90509392505050565b600081905092915050565b6000620005de82620004f8565b620005ea8185620005c6565b9350620005fc81856020860162000514565b80840191505092915050565b6000620006168285620005d1565b9150620006248284620005d1565b9150819050939250505056fe608060405260405161087938038061087983398181016040528101906100259190610520565b6100378282600061003e60201b60201c565b505061074f565b61004d8361007660201b60201c565b60008251118061005a5750805b156100715761006f83836100cb60201b60201c565b505b505050565b610085816100fe60201b60201c565b8073ffffffffffffffffffffffffffffffffffffffff167fbc7cd75a20ee27fd9adebab32041f755214dbc6bffa90cc0225b39da2e5c2d3b60405160405180910390a250565b60606100f68383604051806060016040528060278152602001610852602791396101c360201b60201c565b905092915050565b61010d8161024f60201b60201c565b61014c576040517f08c379a0000000000000000000000000000000000000000000000000000000008152600401610143906105ff565b60405180910390fd5b8061017f7f360894a13ba1a3210667c828492db98dca3e2076cc3735a920a3ca505d382bbc60001b61027260201b60201c565b60000160006101000a81548173ffffffffffffffffffffffffffffffffffffffff021916908373ffffffffffffffffffffffffffffffffffffffff16021790555050565b60606000808573ffffffffffffffffffffffffffffffffffffffff16856040516101ed9190610666565b600060405180830381855af49150503d8060008114610228576040519150601f19603f3d011682016040523d82523d6000602084013e61022d565b606091505b50915091506102448683838761027c60201b60201c565b925050509392505050565b6000808273ffffffffffffffffffffffffffffffffffffffff163b119050919050565b6000819050919050565b606083156102e45760008351036102dc5761029c8561024f60201b60201c565b6102db576040517f08c379a00000000000000000000000000000000000000000000000000000000081526004016102d2906106c9565b60405180910390fd5b5b8290506102f5565b6102f483836102fd60201b60201c565b5b949350505050565b6000825111156103105781518083602001fd5b806040517f08c379a0000000000000000000000000000000000000000000000000000000008152600401610344919061072d565b60405180910390fd5b6000604051905090565b600080fd5b600080fd5b600073ffffffffffffffffffffffffffffffffffffffff82169050919050565b600061038c82610361565b9050919050565b61039c81610381565b81146103a757600080fd5b50565b6000815190506103b981610393565b92915050565b600080fd5b600080fd5b6000601f19601f8301169050919050565b7f4e487b7100000000000000000000000000000000000000000000000000000000600052604160045260246000fd5b610412826103c9565b810181811067ffffffffffffffff82111715610431576104306103da565b5b80604052505050565b600061044461034d565b90506104508282610409565b919050565b600067ffffffffffffffff8211156104705761046f6103da565b5b610479826103c9565b9050602081019050919050565b60005b838110156104a4578082015181840152602081019050610489565b60008484015250505050565b60006104c36104be84610455565b61043a565b9050828152602081018484840111156104df576104de6103c4565b5b6104ea848285610486565b509392505050565b600082601f830112610507576105066103bf565b5b81516105178482602086016104b0565b91505092915050565b6000806040838503121561053757610536610357565b5b6000610545858286016103aa565b925050602083015167ffffffffffffffff8111156105665761056561035c565b5b610572858286016104f2565b9150509250929050565b600082825260208201905092915050565b7f455243313936373a206e657720696d706c656d656e746174696f6e206973206e60008201527f6f74206120636f6e747261637400000000000000000000000000000000000000602082015250565b60006105e9602d8361057c565b91506105f48261058d565b604082019050919050565b60006020820190508181036000830152610618816105dc565b9050919050565b600081519050919050565b600081905092915050565b60006106408261061f565b61064a818561062a565b935061065a818560208601610486565b80840191505092915050565b60006106728284610635565b915081905092915050565b7f416464726573733a2063616c6c20746f206e6f6e2d636f6e7472616374000000600082015250565b60006106b3601d8361057c565b91506106be8261067d565b602082019050919050565b600060208201905081810360008301526106e2816106a6565b9050919050565b600081519050919050565b60006106ff826106e9565b610709818561057c565b9350610719818560208601610486565b610722816103c9565b840191505092915050565b6000602082019050818103600083015261074781846106f4565b905092915050565b60f58061075d6000396000f3fe608060405236601057600e6018565b005b60166018565b005b601e602c565b602a6026602e565b603b565b565b565b600060366060565b905090565b3660008037600080366000845af43d6000803e8060008114605b573d6000f35b3d6000fd5b6000608c7f360894a13ba1a3210667c828492db98dca3e2076cc3735a920a3ca505d382bbc60001b60b5565b60000160009054906101000a900473ffffffffffffffffffffffffffffffffffffffff16905090565b600081905091905056fea26469706673582212204cc3794e60fa000b2ec6e629fb4f78d271719a1292043718b37f003dac08651864736f6c63430008130033416464726573733a206c6f772d6c6576656c2064656c65676174652063616c6c206661696c6564a26469706673582212209e965e6e9c36f8e67df6eb1941056a7d868ebb900a22df8d826f8df6adac979d64736f6c6343000813003360c06040523073ffffffffffffffffffffffffffffffffffffffff1660809073ffffffffffffffffffffffffffffffffffffffff168152503480156200004457600080fd5b5060405162003eb638038062003eb683398181016040528101906200006a9190620001fa565b8073ffffffffffffffffffffffffffffffffffffffff1660a08173ffffffffffffffffffffffffffffffffffffffff1681525050620000ae620000b560201b60201c565b5062000310565b600060019054906101000a900460ff161562000108576040517f08c379a0000000000000000000000000000000000000000000000000000000008152600401620000ff90620002b3565b60405180910390fd5b60ff801660008054906101000a900460ff1660ff1610156200017a5760ff6000806101000a81548160ff021916908360ff1602179055507f7f26b83ff96e1f2b6a682f133852f6798a09c465da95921460cefb384740249860ff604051620001719190620002f3565b60405180910390a15b565b600080fd5b600073ffffffffffffffffffffffffffffffffffffffff82169050919050565b6000620001ae8262000181565b9050919050565b6000620001c282620001a1565b9050919050565b620001d481620001b5565b8114620001e057600080fd5b50565b600081519050620001f481620001c9565b92915050565b6000602082840312156200021357620002126200017c565b5b60006200022384828501620001e3565b91505092915050565b600082825260208201905092915050565b7f496e697469616c697a61626c653a20636f6e747261637420697320696e69746960008201527f616c697a696e6700000000000000000000000000000000000000000000000000602082015250565b60006200029b6027836200022c565b9150620002a8826200023d565b604082019050919050565b60006020820190508181036000830152620002ce816200028c565b9050919050565b600060ff82169050919050565b620002ed81620002d5565b82525050565b60006020820190506200030a6000830184620002e2565b92915050565b60805160a051613b5d6200035960003960008181610e560152611b01015260008181610819015281816108a701528181610be301528181610c710152610d210152613b5d6000f3fe6080604052600436106101695760003560e01c80638da5cb5b116100d1578063c399ec881161008a578063d595980411610064578063d5959804146104f2578063e22c4ac31461051b578063f23a6e6114610544578063fbb10ae61461058157610170565b8063c399ec8814610473578063c4d66de81461049e578063c7c8e4ed146104c757610170565b80638da5cb5b14610363578063affed0e01461038e578063b0d691fe146103b9578063b61d27f6146103e4578063bbedb64b1461040d578063bc197c811461043657610170565b80634a58db19116101235780634a58db19146102a75780634d44560d146102b15780634deafa38146102da5780634f1ef286146102f157806352d1902d1461030d57806368a9f31c1461033857610170565b806223de291461017557806301ffc9a71461019e578063150b7a02146101db57806318dfb3c7146102185780633659cfe6146102415780633a871cdd1461026a57610170565b3661017057005b600080fd5b34801561018157600080fd5b5061019c600480360381019061019791906122cf565b6105ac565b005b3480156101aa57600080fd5b506101c560048036038101906101c091906123f6565b6105b6565b6040516101d2919061243e565b60405180910390f35b3480156101e757600080fd5b5061020260048036038101906101fd9190612459565b6106f0565b60405161020f91906124f0565b60405180910390f35b34801561022457600080fd5b5061023f600480360381019061023a91906125b7565b610705565b005b34801561024d57600080fd5b5061026860048036038101906102639190612638565b610817565b005b34801561027657600080fd5b50610291600480360381019061028c91906126c0565b61099f565b60405161029e919061273e565b60405180910390f35b6102af6109e8565b005b3480156102bd57600080fd5b506102d860048036038101906102d39190612797565b610a5d565b005b3480156102e657600080fd5b506102ef610add565b005b61030b60048036038101906103069190612918565b610be1565b005b34801561031957600080fd5b50610322610d1d565b60405161032f9190612983565b60405180910390f35b34801561034457600080fd5b5061034d610dd6565b60405161035a91906129ad565b60405180910390f35b34801561036f57600080fd5b50610378610dfc565b60405161038591906129ad565b60405180910390f35b34801561039a57600080fd5b506103a3610e22565b6040516103b0919061273e565b60405180910390f35b3480156103c557600080fd5b506103ce610e52565b6040516103db9190612a27565b60405180910390f35b3480156103f057600080fd5b5061040b60048036038101906104069190612a42565b610e7a565b005b34801561041957600080fd5b50610434600480360381019061042f9190612638565b610ed7565b005b34801561044257600080fd5b5061045d60048036038101906104589190612b0c565b61100d565b60405161046a91906124f0565b60405180910390f35b34801561047f57600080fd5b50610488611025565b604051610495919061273e565b60405180910390f35b3480156104aa57600080fd5b506104c560048036038101906104c09190612638565b6110ad565b005b3480156104d357600080fd5b506104dc6111ed565b6040516104e991906129ad565b60405180910390f35b3480156104fe57600080fd5b5061051960048036038101906105149190612638565b611213565b005b34801561052757600080fd5b50610542600480360381019061053d9190612638565b61125f565b005b34801561055057600080fd5b5061056b60048036038101906105669190612be8565b6112ab565b60405161057891906124f0565b60405180910390f35b34801561058d57600080fd5b506105966112c1565b6040516105a391906129ad565b60405180910390f35b5050505050505050565b60007f150b7a02000000000000000000000000000000000000000000000000000000007bffffffffffffffffffffffffffffffffffffffffffffffffffffffff1916827bffffffffffffffffffffffffffffffffffffffffffffffffffffffff1916148061068157507f4e2312e0000000000000000000000000000000000000000000000000000000007bffffffffffffffffffffffffffffffffffffffffffffffffffffffff1916827bffffffffffffffffffffffffffffffffffffffffffffffffffffffff1916145b806106e957507f01ffc9a7000000000000000000000000000000000000000000000000000000007bffffffffffffffffffffffffffffffffffffffffffffffffffffffff1916827bffffffffffffffffffffffffffffffffffffffffffffffffffffffff1916145b9050919050565b600063150b7a0260e01b905095945050505050565b61070d6112e7565b818190508484905014610755576040517f08c379a000000000000000000000000000000000000000000000000000000000815260040161074c90612cdf565b60405180910390fd5b60005b84849050811015610810576107fd85858381811061077957610778612cff565b5b905060200201602081019061078e9190612638565b60008585858181106107a3576107a2612cff565b5b90506020028101906107b59190612d3d565b8080601f016020809104026020016040519081016040528093929190818152602001838380828437600081840152601f19601f820116905080830192505050505050506113b6565b808061080890612dcf565b915050610758565b5050505050565b7f000000000000000000000000000000000000000000000000000000000000000073ffffffffffffffffffffffffffffffffffffffff163073ffffffffffffffffffffffffffffffffffffffff16036108a5576040517f08c379a000000000000000000000000000000000000000000000000000000000815260040161089c90612e89565b60405180910390fd5b7f000000000000000000000000000000000000000000000000000000000000000073ffffffffffffffffffffffffffffffffffffffff166108e461143a565b73ffffffffffffffffffffffffffffffffffffffff161461093a576040517f08c379a000000000000000000000000000000000000000000000000000000000815260040161093190612f1b565b60405180910390fd5b61094381611491565b61099c81600067ffffffffffffffff811115610962576109616127ed565b5b6040519080825280601f01601f1916602001820160405280156109945781602001600182028036833780820191505090505b50600061149c565b50565b60006109a961160a565b6109b38484611681565b905060008480604001906109c79190612d3d565b9050036109d8576109d7846117be565b5b6109e18261186c565b9392505050565b6109f0610e52565b73ffffffffffffffffffffffffffffffffffffffff1663b760faf934306040518363ffffffff1660e01b8152600401610a2991906129ad565b6000604051808303818588803b158015610a4257600080fd5b505af1158015610a56573d6000803e3d6000fd5b5050505050565b610a65611908565b610a6d610e52565b73ffffffffffffffffffffffffffffffffffffffff1663205c287883836040518363ffffffff1660e01b8152600401610aa7929190612f4a565b600060405180830381600087803b158015610ac157600080fd5b505af1158015610ad5573d6000803e3d6000fd5b505050505050565b610ae56119d0565b600073ffffffffffffffffffffffffffffffffffffffff16600460009054906101000a900473ffffffffffffffffffffffffffffffffffffffff1673ffffffffffffffffffffffffffffffffffffffff1603610b76576040517f08c379a0000000000000000000000000000000000000000000000000000000008152600401610b6d90612fbf565b60405180910390fd5b600460009054906101000a900473ffffffffffffffffffffffffffffffffffffffff1673ffffffffffffffffffffffffffffffffffffffff166108fc479081150290604051600060405180830381858888f19350505050158015610bde573d6000803e3d6000fd5b50565b7f000000000000000000000000000000000000000000000000000000000000000073ffffffffffffffffffffffffffffffffffffffff163073ffffffffffffffffffffffffffffffffffffffff1603610c6f576040517f08c379a0000000000000000000000000000000000000000000000000000000008152600401610c6690612e89565b60405180910390fd5b7f000000000000000000000000000000000000000000000000000000000000000073ffffffffffffffffffffffffffffffffffffffff16610cae61143a565b73ffffffffffffffffffffffffffffffffffffffff1614610d04576040517f08c379a0000000000000000000000000000000000000000000000000000000008152600401610cfb90612f1b565b60405180910390fd5b610d0d82611491565b610d198282600161149c565b5050565b60007f000000000000000000000000000000000000000000000000000000000000000073ffffffffffffffffffffffffffffffffffffffff163073ffffffffffffffffffffffffffffffffffffffff1614610dad576040517f08c379a0000000000000000000000000000000000000000000000000000000008152600401610da490613051565b60405180910390fd5b7f360894a13ba1a3210667c828492db98dca3e2076cc3735a920a3ca505d382bbc60001b905090565b600260009054906101000a900473ffffffffffffffffffffffffffffffffffffffff1681565b6001600c9054906101000a900473ffffffffffffffffffffffffffffffffffffffff1681565b6000600160009054906101000a90046bffffffffffffffffffffffff166bffffffffffffffffffffffff16905090565b60007f0000000000000000000000000000000000000000000000000000000000000000905090565b610e826112e7565b610ed1848484848080601f016020809104026020016040519081016040528093929190818152602001838380828437600081840152601f19601f820116905080830192505050505050506113b6565b50505050565b610edf611908565b600073ffffffffffffffffffffffffffffffffffffffff16600260009054906101000a900473ffffffffffffffffffffffffffffffffffffffff1673ffffffffffffffffffffffffffffffffffffffff1614610f70576040517f08c379a0000000000000000000000000000000000000000000000000000000008152600401610f67906130bd565b60405180910390fd5b80600260006101000a81548173ffffffffffffffffffffffffffffffffffffffff021916908373ffffffffffffffffffffffffffffffffffffffff1602179055507fd9f7b34fba24e4e88ecc6055d049d20c4d176247db160d2ae43340c7e17c73ac600260009054906101000a900473ffffffffffffffffffffffffffffffffffffffff1660405161100291906129ad565b60405180910390a150565b600063bc197c8160e01b905098975050505050505050565b600061102f610e52565b73ffffffffffffffffffffffffffffffffffffffff166370a08231306040518263ffffffff1660e01b815260040161106791906129ad565b602060405180830381865afa158015611084573d6000803e3d6000fd5b505050506040513d601f19601f820116820180604052508101906110a891906130f2565b905090565b60008060019054906101000a900460ff161590508080156110de5750600160008054906101000a900460ff1660ff16105b8061110b57506110ed30611a62565b15801561110a5750600160008054906101000a900460ff1660ff16145b5b61114a576040517f08c379a000000000000000000000000000000000000000000000000000000000815260040161114190613191565b60405180910390fd5b60016000806101000a81548160ff021916908360ff1602179055508015611187576001600060016101000a81548160ff0219169083151502179055505b61119082611a85565b80156111e95760008060016101000a81548160ff0219169083151502179055507f7f26b83ff96e1f2b6a682f133852f6798a09c465da95921460cefb384740249860016040516111e091906131f9565b60405180910390a15b5050565b600460009054906101000a900473ffffffffffffffffffffffffffffffffffffffff1681565b61121b611b65565b80600360006101000a81548173ffffffffffffffffffffffffffffffffffffffff021916908373ffffffffffffffffffffffffffffffffffffffff16021790555050565b611267611b65565b80600460006101000a81548173ffffffffffffffffffffffffffffffffffffffff021916908373ffffffffffffffffffffffffffffffffffffffff16021790555050565b600063f23a6e6160e01b90509695505050505050565b600360009054906101000a900473ffffffffffffffffffffffffffffffffffffffff1681565b6112ef610e52565b73ffffffffffffffffffffffffffffffffffffffff163373ffffffffffffffffffffffffffffffffffffffff16148061137557506001600c9054906101000a900473ffffffffffffffffffffffffffffffffffffffff1673ffffffffffffffffffffffffffffffffffffffff163373ffffffffffffffffffffffffffffffffffffffff16145b6113b4576040517f08c379a00000000000000000000000000000000000000000000000000000000081526004016113ab90613260565b60405180910390fd5b565b6000808473ffffffffffffffffffffffffffffffffffffffff1684846040516113df91906132f1565b60006040518083038185875af1925050503d806000811461141c576040519150601f19603f3d011682016040523d82523d6000602084013e611421565b606091505b50915091508161143357805160208201fd5b5050505050565b60006114687f360894a13ba1a3210667c828492db98dca3e2076cc3735a920a3ca505d382bbc60001b611c12565b60000160009054906101000a900473ffffffffffffffffffffffffffffffffffffffff16905090565b611499611908565b50565b6114c87f4910fdfa16fed3260ed0e7147f7cc6da11a60208b5b9406d12a635614ffd914360001b611c1c565b60000160009054906101000a900460ff16156114ec576114e783611c26565b611605565b8273ffffffffffffffffffffffffffffffffffffffff166352d1902d6040518163ffffffff1660e01b8152600401602060405180830381865afa92505050801561155457506040513d601f19601f82011682018060405250810190611551919061331d565b60015b611593576040517f08c379a000000000000000000000000000000000000000000000000000000000815260040161158a906133bc565b60405180910390fd5b7f360894a13ba1a3210667c828492db98dca3e2076cc3735a920a3ca505d382bbc60001b81146115f8576040517f08c379a00000000000000000000000000000000000000000000000000000000081526004016115ef9061344e565b60405180910390fd5b50611604838383611cdf565b5b505050565b611612610e52565b73ffffffffffffffffffffffffffffffffffffffff163373ffffffffffffffffffffffffffffffffffffffff161461167f576040517f08c379a0000000000000000000000000000000000000000000000000000000008152600401611676906134ba565b60405180910390fd5b565b60008073ffffffffffffffffffffffffffffffffffffffff16600260009054906101000a900473ffffffffffffffffffffffffffffffffffffffff1673ffffffffffffffffffffffffffffffffffffffff16036117b35760006116e383611d0b565b905061174b848061014001906116f99190612d3d565b8080601f016020809104026020016040519081016040528093929190818152602001838380828437600081840152601f19601f8201169050808301925050505050505082611d3b90919063ffffffff16565b73ffffffffffffffffffffffffffffffffffffffff166001600c9054906101000a900473ffffffffffffffffffffffffffffffffffffffff1673ffffffffffffffffffffffffffffffffffffffff16146117a95760019150506117b8565b60009150506117b8565b600090505b92915050565b80602001356001600081819054906101000a90046bffffffffffffffffffffffff16809291906117ed906134f2565b91906101000a8154816bffffffffffffffffffffffff02191690836bffffffffffffffffffffffff1602179055506bffffffffffffffffffffffff1614611869576040517f08c379a000000000000000000000000000000000000000000000000000000000815260040161186090613572565b60405180910390fd5b50565b600081146119055760003373ffffffffffffffffffffffffffffffffffffffff16827fffffffffffffffffffffffffffffffffffffffffffffffffffffffffffffffff906040516118bc906135b8565b600060405180830381858888f193505050503d80600081146118fa576040519150601f19603f3d011682016040523d82523d6000602084013e6118ff565b606091505b50509050505b50565b6001600c9054906101000a900473ffffffffffffffffffffffffffffffffffffffff1673ffffffffffffffffffffffffffffffffffffffff163373ffffffffffffffffffffffffffffffffffffffff16148061198f57503073ffffffffffffffffffffffffffffffffffffffff163373ffffffffffffffffffffffffffffffffffffffff16145b6119ce576040517f08c379a00000000000000000000000000000000000000000000000000000000081526004016119c590613619565b60405180910390fd5b565b600360009054906101000a900473ffffffffffffffffffffffffffffffffffffffff1673ffffffffffffffffffffffffffffffffffffffff163373ffffffffffffffffffffffffffffffffffffffff1614611a60576040517f08c379a0000000000000000000000000000000000000000000000000000000008152600401611a5790613685565b60405180910390fd5b565b6000808273ffffffffffffffffffffffffffffffffffffffff163b119050919050565b806001600c6101000a81548173ffffffffffffffffffffffffffffffffffffffff021916908373ffffffffffffffffffffffffffffffffffffffff1602179055506001600c9054906101000a900473ffffffffffffffffffffffffffffffffffffffff1673ffffffffffffffffffffffffffffffffffffffff167f000000000000000000000000000000000000000000000000000000000000000073ffffffffffffffffffffffffffffffffffffffff167f47e55c76e7a6f1fd8996a1da8008c1ea29699cca35e7bcd057f2dec313b6e5de60405160405180910390a350565b611b6d610e52565b73ffffffffffffffffffffffffffffffffffffffff163373ffffffffffffffffffffffffffffffffffffffff161480611bd157503073ffffffffffffffffffffffffffffffffffffffff163373ffffffffffffffffffffffffffffffffffffffff16145b611c10576040517f08c379a0000000000000000000000000000000000000000000000000000000008152600401611c07906136f1565b60405180910390fd5b565b6000819050919050565b6000819050919050565b611c2f81611a62565b611c6e576040517f08c379a0000000000000000000000000000000000000000000000000000000008152600401611c6590613783565b60405180910390fd5b80611c9b7f360894a13ba1a3210667c828492db98dca3e2076cc3735a920a3ca505d382bbc60001b611c12565b60000160006101000a81548173ffffffffffffffffffffffffffffffffffffffff021916908373ffffffffffffffffffffffffffffffffffffffff16021790555050565b611ce883611d62565b600082511180611cf55750805b15611d0657611d048383611db1565b505b505050565b600081604051602001611d1e919061381b565b604051602081830303815290604052805190602001209050919050565b6000806000611d4a8585611dde565b91509150611d5781611e2f565b819250505092915050565b611d6b81611c26565b8073ffffffffffffffffffffffffffffffffffffffff167fbc7cd75a20ee27fd9adebab32041f755214dbc6bffa90cc0225b39da2e5c2d3b60405160405180910390a250565b6060611dd68383604051806060016040528060278152602001613b0160279139611f95565b905092915050565b6000806041835103611e1f5760008060006020860151925060408601519150606086015160001a9050611e138782858561201b565b94509450505050611e28565b60006002915091505b9250929050565b60006004811115611e4357611e42613841565b5b816004811115611e5657611e55613841565b5b0315611f925760016004811115611e7057611e6f613841565b5b816004811115611e8357611e82613841565b5b03611ec3576040517f08c379a0000000000000000000000000000000000000000000000000000000008152600401611eba906138bc565b60405180910390fd5b60026004811115611ed757611ed6613841565b5b816004811115611eea57611ee9613841565b5b03611f2a576040517f08c379a0000000000000000000000000000000000000000000000000000000008152600401611f2190613928565b60405180910390fd5b60036004811115611f3e57611f3d613841565b5b816004811115611f5157611f50613841565b5b03611f91576040517f08c379a0000000000000000000000000000000000000000000000000000000008152600401611f88906139ba565b60405180910390fd5b5b50565b60606000808573ffffffffffffffffffffffffffffffffffffffff1685604051611fbf91906132f1565b600060405180830381855af49150503d8060008114611ffa576040519150601f19603f3d011682016040523d82523d6000602084013e611fff565b606091505b5091509150612010868383876120fd565b925050509392505050565b6000807f7fffffffffffffffffffffffffffffff5d576e7357a4501ddfe92f46681b20a08360001c11156120565760006003915091506120f4565b60006001878787876040516000815260200160405260405161207b94939291906139e9565b6020604051602081039080840390855afa15801561209d573d6000803e3d6000fd5b505050602060405103519050600073ffffffffffffffffffffffffffffffffffffffff168173ffffffffffffffffffffffffffffffffffffffff16036120eb576000600192509250506120f4565b80600092509250505b94509492505050565b6060831561215f5760008351036121575761211785611a62565b612156576040517f08c379a000000000000000000000000000000000000000000000000000000000815260040161214d90613a7a565b60405180910390fd5b5b82905061216a565b6121698383612172565b5b949350505050565b6000825111156121855781518083602001fd5b806040517f08c379a00000000000000000000000000000000000000000000000000000000081526004016121b99190613ade565b60405180910390fd5b6000604051905090565b600080fd5b600080fd5b600073ffffffffffffffffffffffffffffffffffffffff82169050919050565b6000612201826121d6565b9050919050565b612211816121f6565b811461221c57600080fd5b50565b60008135905061222e81612208565b92915050565b6000819050919050565b61224781612234565b811461225257600080fd5b50565b6000813590506122648161223e565b92915050565b600080fd5b600080fd5b600080fd5b60008083601f84011261228f5761228e61226a565b5b8235905067ffffffffffffffff8111156122ac576122ab61226f565b5b6020830191508360018202830111156122c8576122c7612274565b5b9250929050565b60008060008060008060008060c0898b0312156122ef576122ee6121cc565b5b60006122fd8b828c0161221f565b985050602061230e8b828c0161221f565b975050604061231f8b828c0161221f565b96505060606123308b828c01612255565b955050608089013567ffffffffffffffff811115612351576123506121d1565b5b61235d8b828c01612279565b945094505060a089013567ffffffffffffffff8111156123805761237f6121d1565b5b61238c8b828c01612279565b92509250509295985092959890939650565b60007fffffffff0000000000000000000000000000000000000000000000000000000082169050919050565b6123d38161239e565b81146123de57600080fd5b50565b6000813590506123f0816123ca565b92915050565b60006020828403121561240c5761240b6121cc565b5b600061241a848285016123e1565b91505092915050565b60008115159050919050565b61243881612423565b82525050565b6000602082019050612453600083018461242f565b92915050565b600080600080600060808688031215612475576124746121cc565b5b60006124838882890161221f565b95505060206124948882890161221f565b94505060406124a588828901612255565b935050606086013567ffffffffffffffff8111156124c6576124c56121d1565b5b6124d288828901612279565b92509250509295509295909350565b6124ea8161239e565b82525050565b600060208201905061250560008301846124e1565b92915050565b60008083601f8401126125215761252061226a565b5b8235905067ffffffffffffffff81111561253e5761253d61226f565b5b60208301915083602082028301111561255a57612559612274565b5b9250929050565b60008083601f8401126125775761257661226a565b5b8235905067ffffffffffffffff8111156125945761259361226f565b5b6020830191508360208202830111156125b0576125af612274565b5b9250929050565b600080600080604085870312156125d1576125d06121cc565b5b600085013567ffffffffffffffff8111156125ef576125ee6121d1565b5b6125fb8782880161250b565b9450945050602085013567ffffffffffffffff81111561261e5761261d6121d1565b5b61262a87828801612561565b925092505092959194509250565b60006020828403121561264e5761264d6121cc565b5b600061265c8482850161221f565b91505092915050565b600080fd5b6000610160828403121561268157612680612665565b5b81905092915050565b6000819050919050565b61269d8161268a565b81146126a857600080fd5b50565b6000813590506126ba81612694565b92915050565b6000806000606084860312156126d9576126d86121cc565b5b600084013567ffffffffffffffff8111156126f7576126f66121d1565b5b6127038682870161266a565b9350506020612714868287016126ab565b925050604061272586828701612255565b9150509250925092565b61273881612234565b82525050565b6000602082019050612753600083018461272f565b92915050565b6000612764826121d6565b9050919050565b61277481612759565b811461277f57600080fd5b50565b6000813590506127918161276b565b92915050565b600080604083850312156127ae576127ad6121cc565b5b60006127bc85828601612782565b92505060206127cd85828601612255565b9150509250929050565b600080fd5b6000601f19601f8301169050919050565b7f4e487b7100000000000000000000000000000000000000000000000000000000600052604160045260246000fd5b612825826127dc565b810181811067ffffffffffffffff82111715612844576128436127ed565b5b80604052505050565b60006128576121c2565b9050612863828261281c565b919050565b600067ffffffffffffffff821115612883576128826127ed565b5b61288c826127dc565b9050602081019050919050565b82818337600083830152505050565b60006128bb6128b684612868565b61284d565b9050828152602081018484840111156128d7576128d66127d7565b5b6128e2848285612899565b509392505050565b600082601f8301126128ff576128fe61226a565b5b813561290f8482602086016128a8565b91505092915050565b6000806040838503121561292f5761292e6121cc565b5b600061293d8582860161221f565b925050602083013567ffffffffffffffff81111561295e5761295d6121d1565b5b61296a858286016128ea565b9150509250929050565b61297d8161268a565b82525050565b60006020820190506129986000830184612974565b92915050565b6129a7816121f6565b82525050565b60006020820190506129c2600083018461299e565b92915050565b6000819050919050565b60006129ed6129e86129e3846121d6565b6129c8565b6121d6565b9050919050565b60006129ff826129d2565b9050919050565b6000612a11826129f4565b9050919050565b612a2181612a06565b82525050565b6000602082019050612a3c6000830184612a18565b92915050565b60008060008060608587031215612a5c57612a5b6121cc565b5b6000612a6a8782880161221f565b9450506020612a7b87828801612255565b935050604085013567ffffffffffffffff811115612a9c57612a9b6121d1565b5b612aa887828801612279565b925092505092959194509250565b60008083601f840112612acc57612acb61226a565b5b8235905067ffffffffffffffff811115612ae957612ae861226f565b5b602083019150836020820283011115612b0557612b04612274565b5b9250929050565b60008060008060008060008060a0898b031215612b2c57612b2b6121cc565b5b6000612b3a8b828c0161221f565b9850506020612b4b8b828c0161221f565b975050604089013567ffffffffffffffff811115612b6c57612b6b6121d1565b5b612b788b828c01612ab6565b9650965050606089013567ffffffffffffffff811115612b9b57612b9a6121d1565b5b612ba78b828c01612ab6565b9450945050608089013567ffffffffffffffff811115612bca57612bc96121d1565b5b612bd68b828c01612279565b92509250509295985092959890939650565b60008060008060008060a08789031215612c0557612c046121cc565b5b6000612c1389828a0161221f565b9650506020612c2489828a0161221f565b9550506040612c3589828a01612255565b9450506060612c4689828a01612255565b935050608087013567ffffffffffffffff811115612c6757612c666121d1565b5b612c7389828a01612279565b92509250509295509295509295565b600082825260208201905092915050565b7f77726f6e67206172726179206c656e6774687300000000000000000000000000600082015250565b6000612cc9601383612c82565b9150612cd482612c93565b602082019050919050565b60006020820190508181036000830152612cf881612cbc565b9050919050565b7f4e487b7100000000000000000000000000000000000000000000000000000000600052603260045260246000fd5b600080fd5b600080fd5b600080fd5b60008083356001602003843603038112612d5a57612d59612d2e565b5b80840192508235915067ffffffffffffffff821115612d7c57612d7b612d33565b5b602083019250600182023603831315612d9857612d97612d38565b5b509250929050565b7f4e487b7100000000000000000000000000000000000000000000000000000000600052601160045260246000fd5b6000612dda82612234565b91507fffffffffffffffffffffffffffffffffffffffffffffffffffffffffffffffff8203612e0c57612e0b612da0565b5b600182019050919050565b7f46756e6374696f6e206d7573742062652063616c6c6564207468726f7567682060008201527f64656c656761746563616c6c0000000000000000000000000000000000000000602082015250565b6000612e73602c83612c82565b9150612e7e82612e17565b604082019050919050565b60006020820190508181036000830152612ea281612e66565b9050919050565b7f46756e6374696f6e206d7573742062652063616c6c6564207468726f7567682060008201527f6163746976652070726f78790000000000000000000000000000000000000000602082015250565b6000612f05602c83612c82565b9150612f1082612ea9565b604082019050919050565b60006020820190508181036000830152612f3481612ef8565b9050919050565b612f4481612759565b82525050565b6000604082019050612f5f6000830185612f3b565b612f6c602083018461272f565b9392505050565b7f657363617065206973206e6f7420736574000000000000000000000000000000600082015250565b6000612fa9601183612c82565b9150612fb482612f73565b602082019050919050565b60006020820190508181036000830152612fd881612f9c565b9050919050565b7f555550535570677261646561626c653a206d757374206e6f742062652063616c60008201527f6c6564207468726f7567682064656c656761746563616c6c0000000000000000602082015250565b600061303b603883612c82565b915061304682612fdf565b604082019050919050565b6000602082019050818103600083015261306a8161302e565b9050919050565b7f7365636f6e644f776e657220616c726561647920736574000000000000000000600082015250565b60006130a7601783612c82565b91506130b282613071565b602082019050919050565b600060208201905081810360008301526130d68161309a565b9050919050565b6000815190506130ec8161223e565b92915050565b600060208284031215613108576131076121cc565b5b6000613116848285016130dd565b91505092915050565b7f496e697469616c697a61626c653a20636f6e747261637420697320616c72656160008201527f647920696e697469616c697a6564000000000000000000000000000000000000602082015250565b600061317b602e83612c82565b91506131868261311f565b604082019050919050565b600060208201905081810360008301526131aa8161316e565b9050919050565b6000819050919050565b600060ff82169050919050565b60006131e36131de6131d9846131b1565b6129c8565b6131bb565b9050919050565b6131f3816131c8565b82525050565b600060208201905061320e60008301846131ea565b92915050565b7f6163636f756e743a206e6f74204f776e6572206f7220456e747279506f696e74600082015250565b600061324a602083612c82565b915061325582613214565b602082019050919050565b600060208201905081810360008301526132798161323d565b9050919050565b600081519050919050565b600081905092915050565b60005b838110156132b4578082015181840152602081019050613299565b60008484015250505050565b60006132cb82613280565b6132d5818561328b565b93506132e5818560208601613296565b80840191505092915050565b60006132fd82846132c0565b915081905092915050565b60008151905061331781612694565b92915050565b600060208284031215613333576133326121cc565b5b600061334184828501613308565b91505092915050565b7f45524331393637557067726164653a206e657720696d706c656d656e7461746960008201527f6f6e206973206e6f742055555053000000000000000000000000000000000000602082015250565b60006133a6602e83612c82565b91506133b18261334a565b604082019050919050565b600060208201905081810360008301526133d581613399565b9050919050565b7f45524331393637557067726164653a20756e737570706f727465642070726f7860008201527f6961626c65555549440000000000000000000000000000000000000000000000602082015250565b6000613438602983612c82565b9150613443826133dc565b604082019050919050565b600060208201905081810360008301526134678161342b565b9050919050565b7f6163636f756e743a206e6f742066726f6d20456e747279506f696e7400000000600082015250565b60006134a4601c83612c82565b91506134af8261346e565b602082019050919050565b600060208201905081810360008301526134d381613497565b9050919050565b60006bffffffffffffffffffffffff82169050919050565b60006134fd826134da565b91506bffffffffffffffffffffffff820361351b5761351a612da0565b5b600182019050919050565b7f6163636f756e743a20696e76616c6964206e6f6e636500000000000000000000600082015250565b600061355c601683612c82565b915061356782613526565b602082019050919050565b6000602082019050818103600083015261358b8161354f565b9050919050565b50565b60006135a260008361328b565b91506135ad82613592565b600082019050919050565b60006135c382613595565b9150819050919050565b7f6f6e6c79206f776e657200000000000000000000000000000000000000000000600082015250565b6000613603600a83612c82565b915061360e826135cd565b602082019050919050565b60006020820190508181036000830152613632816135f6565b9050919050565b7f6f6e6c7920504b50000000000000000000000000000000000000000000000000600082015250565b600061366f600883612c82565b915061367a82613639565b602082019050919050565b6000602082019050818103600083015261369e81613662565b9050919050565b7f6163636f756e743a206e6f742074686973206f7220456e747279506f696e7400600082015250565b60006136db601f83612c82565b91506136e6826136a5565b602082019050919050565b6000602082019050818103600083015261370a816136ce565b9050919050565b7f455243313936373a206e657720696d706c656d656e746174696f6e206973206e60008201527f6f74206120636f6e747261637400000000000000000000000000000000000000602082015250565b600061376d602d83612c82565b915061377882613711565b604082019050919050565b6000602082019050818103600083015261379c81613760565b9050919050565b600081905092915050565b7f19457468657265756d205369676e6564204d6573736167653a0a333200000000600082015250565b60006137e4601c836137a3565b91506137ef826137ae565b601c82019050919050565b6000819050919050565b6138156138108261268a565b6137fa565b82525050565b6000613826826137d7565b91506138328284613804565b60208201915081905092915050565b7f4e487b7100000000000000000000000000000000000000000000000000000000600052602160045260246000fd5b7f45434453413a20696e76616c6964207369676e61747572650000000000000000600082015250565b60006138a6601883612c82565b91506138b182613870565b602082019050919050565b600060208201905081810360008301526138d581613899565b9050919050565b7f45434453413a20696e76616c6964207369676e6174757265206c656e67746800600082015250565b6000613912601f83612c82565b915061391d826138dc565b602082019050919050565b6000602082019050818103600083015261394181613905565b9050919050565b7f45434453413a20696e76616c6964207369676e6174757265202773272076616c60008201527f7565000000000000000000000000000000000000000000000000000000000000602082015250565b60006139a4602283612c82565b91506139af82613948565b604082019050919050565b600060208201905081810360008301526139d381613997565b9050919050565b6139e3816131bb565b82525050565b60006080820190506139fe6000830187612974565b613a0b60208301866139da565b613a186040830185612974565b613a256060830184612974565b95945050505050565b7f416464726573733a2063616c6c20746f206e6f6e2d636f6e7472616374000000600082015250565b6000613a64601d83612c82565b9150613a6f82613a2e565b602082019050919050565b60006020820190508181036000830152613a9381613a57565b9050919050565b600081519050919050565b6000613ab082613a9a565b613aba8185612c82565b9350613aca818560208601613296565b613ad3816127dc565b840191505092915050565b60006020820190508181036000830152613af88184613aa5565b90509291505056fe416464726573733a206c6f772d6c6576656c2064656c65676174652063616c6c206661696c6564a26469706673582212203183d76f64b62a11bd526a5cabfef4cc4f4af4c81b092c101f567e8c38c452ce64736f6c63430008130033",
  "immutableReferences": {
    "12373": [
      {
        "length": 32,
        "start": 219
      },
      {
        "length": 32,
        "start": 325
      },
      {
        "length": 32,
        "start": 566
      }
    ]
  },
  "source": "// SPDX-License-Identifier: GPL-3.0\npragma solidity 0.8.19;\n\nimport \"@openzeppelin/contracts/utils/Create2.sol\";\nimport \"@openzeppelin/contracts/proxy/ERC1967/ERC1967Proxy.sol\";\n\nimport \"./WalletAccount.sol\";\n\n/**\n * A sample factory contract for SimpleAccount\n * A UserOperations \"initCode\" holds the address of the factory, and a method call (to createAccount, in this sample factory).\n * The factory's createAccount returns the target account address even if it is already installed.\n * This way, the entryPoint.getSenderAddress() can be called either before or after the account is created.\n */\ncontract WalletAccountFactory {\n    WalletAccount public immutable accountImplementation;\n\n    constructor(IEntryPoint _entryPoint) {\n        accountImplementation = new WalletAccount(_entryPoint);\n    }\n\n    /**\n     * create an account, and return its address.\n     * returns the address even if the account is already deployed.\n     * Note that during UserOperation execution, this method is called only if the account is not deployed.\n     * This method returns an existing account address so that entryPoint.getSenderAddress() would work even after account creation\n     */\n    function createAccount(address owner,uint256 salt) public returns (WalletAccount ret) {\n        address addr = getAddress(owner, salt);\n        uint codeSize = addr.code.length;\n        if (codeSize > 0) {\n            return WalletAccount(payable(addr));\n        }\n        ret = WalletAccount(payable(new ERC1967Proxy{salt : bytes32(salt)}(\n                address(accountImplementation),\n                abi.encodeCall(WalletAccount.initialize, (owner))\n            )));\n    }\n\n    /**\n     * calculate the counterfactual address of this account as it would be returned by createAccount()\n     */\n    function getAddress(address owner,uint256 salt) public view returns (address) {\n        return Create2.computeAddress(bytes32(salt), keccak256(abi.encodePacked(\n                type(ERC1967Proxy).creationCode,\n                abi.encode(\n                    address(accountImplementation),\n                    abi.encodeCall(WalletAccount.initialize, (owner))\n                )\n            )));\n    }\n}",
  "sourcePath": "/Users/Nobu/Documents/Works/MyProject/bailout/account-abstraction/contracts/samples/WalletAccountFactory.sol",
  "compiler": {
    "name": "solc",
    "version": "0.8.19+commit.7dd6d404.Emscripten.clang"
  },
  "schemaVersion": "3.4.13",
  "updatedAt": "2023-04-15T05:45:10.403Z",
  "networkType": "ethereum",
  "devdoc": {
    "kind": "dev",
    "methods": {},
    "version": 1
  },
  "userdoc": {
    "kind": "user",
    "methods": {
      "createAccount(address,uint256)": {
        "notice": "create an account, and return its address. returns the address even if the account is already deployed. Note that during UserOperation execution, this method is called only if the account is not deployed. This method returns an existing account address so that entryPoint.getSenderAddress() would work even after account creation"
      },
      "getAddress(address,uint256)": {
        "notice": "calculate the counterfactual address of this account as it would be returned by createAccount()"
      }
    },
    "notice": "A sample factory contract for SimpleAccount A UserOperations \"initCode\" holds the address of the factory, and a method call (to createAccount, in this sample factory). The factory's createAccount returns the target account address even if it is already installed. This way, the entryPoint.getSenderAddress() can be called either before or after the account is created.",
    "version": 1
  }
}