{
  "contractName": "WalletAccountFactory",
  "abi": [
    {
      "inputs": [
        {
          "internalType": "contract IEntryPoint",
          "name": "_entryPoint",
          "type": "address"
        }
      ],
      "stateMutability": "nonpayable",
      "type": "constructor"
    },
    {
      "inputs": [],
      "name": "accountImplementation",
      "outputs": [
        {
          "internalType": "contract WalletAccount",
          "name": "",
          "type": "address"
        }
      ],
      "stateMutability": "view",
      "type": "function",
      "constant": true
    },
    {
      "inputs": [
        {
          "internalType": "address",
          "name": "owner",
          "type": "address"
        },
        {
          "internalType": "uint256",
          "name": "salt",
          "type": "uint256"
        }
      ],
      "name": "createAccount",
      "outputs": [
        {
          "internalType": "contract WalletAccount",
          "name": "ret",
          "type": "address"
        }
      ],
      "stateMutability": "nonpayable",
      "type": "function"
    },
    {
      "inputs": [
        {
          "internalType": "address",
          "name": "owner",
          "type": "address"
        },
        {
          "internalType": "uint256",
          "name": "salt",
          "type": "uint256"
        }
      ],
      "name": "getAddress",
      "outputs": [
        {
          "internalType": "address",
          "name": "",
          "type": "address"
        }
      ],
      "stateMutability": "view",
      "type": "function",
      "constant": true
    }
  ],
  "bytecode": "0x60a060405234801561001057600080fd5b50604051620049223803806200492283398181016040528101906100349190610124565b80604051610041906100a1565b61004b91906101b0565b604051809103906000f080158015610067573d6000803e3d6000fd5b5073ffffffffffffffffffffffffffffffffffffffff1660808173ffffffffffffffffffffffffffffffffffffffff1681525050506101cb565b61384f80620010d383390190565b600080fd5b600073ffffffffffffffffffffffffffffffffffffffff82169050919050565b60006100df826100b4565b9050919050565b60006100f1826100d4565b9050919050565b610101816100e6565b811461010c57600080fd5b50565b60008151905061011e816100f8565b92915050565b60006020828403121561013a576101396100af565b5b60006101488482850161010f565b91505092915050565b6000819050919050565b600061017661017161016c846100b4565b610151565b6100b4565b9050919050565b60006101888261015b565b9050919050565b600061019a8261017d565b9050919050565b6101aa8161018f565b82525050565b60006020820190506101c560008301846101a1565b92915050565b608051610edf620001f46000396000818160db0152818161014501526102360152610edf6000f3fe60806040523480156200001157600080fd5b5060043610620000465760003560e01c806311464fbe146200004b5780635fbfb9cf146200006d5780638cb84e1814620000a3575b600080fd5b62000055620000d9565b604051620000649190620003e1565b60405180910390f35b6200008b600480360381019062000085919062000483565b620000fd565b6040516200009a9190620003e1565b60405180910390f35b620000c16004803603810190620000bb919062000483565b62000204565b604051620000d09190620004db565b60405180910390f35b7f000000000000000000000000000000000000000000000000000000000000000081565b6000806200010c848462000204565b905060008173ffffffffffffffffffffffffffffffffffffffff163b905060008111156200013f578192505050620001fe565b8360001b7f000000000000000000000000000000000000000000000000000000000000000086604051602401620001779190620004db565b60405160208183030381529060405263c4d66de860e01b6020820180517bffffffffffffffffffffffffffffffffffffffffffffffffffffffff8381831617835250505050604051620001ca9062000348565b620001d792919062000592565b8190604051809103906000f5905080158015620001f8573d6000803e3d6000fd5b50925050505b92915050565b6000620002fe8260001b60405180602001620002209062000348565b6020820181038252601f19601f820116604052507f000000000000000000000000000000000000000000000000000000000000000086604051602401620002689190620004db565b60405160208183030381529060405263c4d66de860e01b6020820180517bffffffffffffffffffffffffffffffffffffffffffffffffffffffff8381831617835250505050604051602001620002c092919062000592565b604051602081830303815290604052604051602001620002e292919062000608565b6040516020818303038152906040528051906020012062000306565b905092915050565b6000620003158383306200031d565b905092915050565b6000604051836040820152846020820152828152600b810160ff815360558120925050509392505050565b610879806200063183390190565b600073ffffffffffffffffffffffffffffffffffffffff82169050919050565b6000819050919050565b6000620003a16200039b620003958462000356565b62000376565b62000356565b9050919050565b6000620003b58262000380565b9050919050565b6000620003c982620003a8565b9050919050565b620003db81620003bc565b82525050565b6000602082019050620003f86000830184620003d0565b92915050565b600080fd5b6000620004108262000356565b9050919050565b620004228162000403565b81146200042e57600080fd5b50565b600081359050620004428162000417565b92915050565b6000819050919050565b6200045d8162000448565b81146200046957600080fd5b50565b6000813590506200047d8162000452565b92915050565b600080604083850312156200049d576200049c620003fe565b5b6000620004ad8582860162000431565b9250506020620004c0858286016200046c565b9150509250929050565b620004d58162000403565b82525050565b6000602082019050620004f26000830184620004ca565b92915050565b600081519050919050565b600082825260208201905092915050565b60005b838110156200053457808201518184015260208101905062000517565b60008484015250505050565b6000601f19601f8301169050919050565b60006200055e82620004f8565b6200056a818562000503565b93506200057c81856020860162000514565b620005878162000540565b840191505092915050565b6000604082019050620005a96000830185620004ca565b8181036020830152620005bd818462000551565b90509392505050565b600081905092915050565b6000620005de82620004f8565b620005ea8185620005c6565b9350620005fc81856020860162000514565b80840191505092915050565b6000620006168285620005d1565b9150620006248284620005d1565b9150819050939250505056fe608060405260405161087938038061087983398181016040528101906100259190610520565b6100378282600061003e60201b60201c565b505061074f565b61004d8361007660201b60201c565b60008251118061005a5750805b156100715761006f83836100cb60201b60201c565b505b505050565b610085816100fe60201b60201c565b8073ffffffffffffffffffffffffffffffffffffffff167fbc7cd75a20ee27fd9adebab32041f755214dbc6bffa90cc0225b39da2e5c2d3b60405160405180910390a250565b60606100f68383604051806060016040528060278152602001610852602791396101c360201b60201c565b905092915050565b61010d8161024f60201b60201c565b61014c576040517f08c379a0000000000000000000000000000000000000000000000000000000008152600401610143906105ff565b60405180910390fd5b8061017f7f360894a13ba1a3210667c828492db98dca3e2076cc3735a920a3ca505d382bbc60001b61027260201b60201c565b60000160006101000a81548173ffffffffffffffffffffffffffffffffffffffff021916908373ffffffffffffffffffffffffffffffffffffffff16021790555050565b60606000808573ffffffffffffffffffffffffffffffffffffffff16856040516101ed9190610666565b600060405180830381855af49150503d8060008114610228576040519150601f19603f3d011682016040523d82523d6000602084013e61022d565b606091505b50915091506102448683838761027c60201b60201c565b925050509392505050565b6000808273ffffffffffffffffffffffffffffffffffffffff163b119050919050565b6000819050919050565b606083156102e45760008351036102dc5761029c8561024f60201b60201c565b6102db576040517f08c379a00000000000000000000000000000000000000000000000000000000081526004016102d2906106c9565b60405180910390fd5b5b8290506102f5565b6102f483836102fd60201b60201c565b5b949350505050565b6000825111156103105781518083602001fd5b806040517f08c379a0000000000000000000000000000000000000000000000000000000008152600401610344919061072d565b60405180910390fd5b6000604051905090565b600080fd5b600080fd5b600073ffffffffffffffffffffffffffffffffffffffff82169050919050565b600061038c82610361565b9050919050565b61039c81610381565b81146103a757600080fd5b50565b6000815190506103b981610393565b92915050565b600080fd5b600080fd5b6000601f19601f8301169050919050565b7f4e487b7100000000000000000000000000000000000000000000000000000000600052604160045260246000fd5b610412826103c9565b810181811067ffffffffffffffff82111715610431576104306103da565b5b80604052505050565b600061044461034d565b90506104508282610409565b919050565b600067ffffffffffffffff8211156104705761046f6103da565b5b610479826103c9565b9050602081019050919050565b60005b838110156104a4578082015181840152602081019050610489565b60008484015250505050565b60006104c36104be84610455565b61043a565b9050828152602081018484840111156104df576104de6103c4565b5b6104ea848285610486565b509392505050565b600082601f830112610507576105066103bf565b5b81516105178482602086016104b0565b91505092915050565b6000806040838503121561053757610536610357565b5b6000610545858286016103aa565b925050602083015167ffffffffffffffff8111156105665761056561035c565b5b610572858286016104f2565b9150509250929050565b600082825260208201905092915050565b7f455243313936373a206e657720696d706c656d656e746174696f6e206973206e60008201527f6f74206120636f6e747261637400000000000000000000000000000000000000602082015250565b60006105e9602d8361057c565b91506105f48261058d565b604082019050919050565b60006020820190508181036000830152610618816105dc565b9050919050565b600081519050919050565b600081905092915050565b60006106408261061f565b61064a818561062a565b935061065a818560208601610486565b80840191505092915050565b60006106728284610635565b915081905092915050565b7f416464726573733a2063616c6c20746f206e6f6e2d636f6e7472616374000000600082015250565b60006106b3601d8361057c565b91506106be8261067d565b602082019050919050565b600060208201905081810360008301526106e2816106a6565b9050919050565b600081519050919050565b60006106ff826106e9565b610709818561057c565b9350610719818560208601610486565b610722816103c9565b840191505092915050565b6000602082019050818103600083015261074781846106f4565b905092915050565b60f58061075d6000396000f3fe608060405236601057600e6018565b005b60166018565b005b601e602c565b602a6026602e565b603b565b565b565b600060366060565b905090565b3660008037600080366000845af43d6000803e8060008114605b573d6000f35b3d6000fd5b6000608c7f360894a13ba1a3210667c828492db98dca3e2076cc3735a920a3ca505d382bbc60001b60b5565b60000160009054906101000a900473ffffffffffffffffffffffffffffffffffffffff16905090565b600081905091905056fea26469706673582212204daf5b6158450e4ca00de7f332ca5a5020982e01002cc53b7fa25d9d1c4e05af64736f6c63430008130033416464726573733a206c6f772d6c6576656c2064656c65676174652063616c6c206661696c6564a264697066735822122039931f61d4fe54670a58ccf6fe2d16b9332c88251240363b2e9057a1a0d7e79464736f6c6343000813003360c06040523073ffffffffffffffffffffffffffffffffffffffff1660809073ffffffffffffffffffffffffffffffffffffffff168152503480156200004457600080fd5b506040516200384f3803806200384f83398181016040528101906200006a9190620001fa565b8073ffffffffffffffffffffffffffffffffffffffff1660a08173ffffffffffffffffffffffffffffffffffffffff1681525050620000ae620000b560201b60201c565b5062000310565b600060019054906101000a900460ff161562000108576040517f08c379a0000000000000000000000000000000000000000000000000000000008152600401620000ff90620002b3565b60405180910390fd5b60ff801660008054906101000a900460ff1660ff1610156200017a5760ff6000806101000a81548160ff021916908360ff1602179055507f7f26b83ff96e1f2b6a682f133852f6798a09c465da95921460cefb384740249860ff604051620001719190620002f3565b60405180910390a15b565b600080fd5b600073ffffffffffffffffffffffffffffffffffffffff82169050919050565b6000620001ae8262000181565b9050919050565b6000620001c282620001a1565b9050919050565b620001d481620001b5565b8114620001e057600080fd5b50565b600081519050620001f481620001c9565b92915050565b6000602082840312156200021357620002126200017c565b5b60006200022384828501620001e3565b91505092915050565b600082825260208201905092915050565b7f496e697469616c697a61626c653a20636f6e747261637420697320696e69746960008201527f616c697a696e6700000000000000000000000000000000000000000000000000602082015250565b60006200029b6027836200022c565b9150620002a8826200023d565b604082019050919050565b60006020820190508181036000830152620002ce816200028c565b9050919050565b600060ff82169050919050565b620002ed81620002d5565b82525050565b60006020820190506200030a6000830184620002e2565b92915050565b60805160a0516134f66200035960003960008181610caa0152611696015260008181610771015281816107ff01528181610a3701528181610ac50152610b7501526134f66000f3fe60806040526004361061012d5760003560e01c806352d1902d116100ab578063b61d27f61161006f578063b61d27f6146103ce578063bbedb64b146103f7578063bc197c8114610420578063c399ec881461045d578063c4d66de814610488578063f23a6e61146104b157610134565b806352d1902d146102f757806368a9f31c146103225780638da5cb5b1461034d578063affed0e014610378578063b0d691fe146103a357610134565b80633659cfe6116100f25780633659cfe6146102425780633a871cdd1461026b5780634a58db19146102a85780634d44560d146102b25780634f1ef286146102db57610134565b806223de291461013957806301ffc9a7146101625780630543f1841461019f578063150b7a02146101dc57806318dfb3c71461021957610134565b3661013457005b600080fd5b34801561014557600080fd5b50610160600480360381019061015b9190611db7565b6104ee565b005b34801561016e57600080fd5b5061018960048036038101906101849190611ede565b6104f8565b6040516101969190611f26565b60405180910390f35b3480156101ab57600080fd5b506101c660048036038101906101c19190611f41565b610632565b6040516101d39190611f7d565b60405180910390f35b3480156101e857600080fd5b5061020360048036038101906101fe9190611f98565b610648565b604051610210919061202f565b60405180910390f35b34801561022557600080fd5b50610240600480360381019061023b91906120f6565b61065d565b005b34801561024e57600080fd5b5061026960048036038101906102649190612177565b61076f565b005b34801561027757600080fd5b50610292600480360381019061028d91906121ff565b6108f7565b60405161029f9190611f7d565b60405180910390f35b6102b0610940565b005b3480156102be57600080fd5b506102d960048036038101906102d491906122ac565b6109b5565b005b6102f560048036038101906102f0919061242d565b610a35565b005b34801561030357600080fd5b5061030c610b71565b6040516103199190612498565b60405180910390f35b34801561032e57600080fd5b50610337610c2a565b60405161034491906124c2565b60405180910390f35b34801561035957600080fd5b50610362610c50565b60405161036f91906124c2565b60405180910390f35b34801561038457600080fd5b5061038d610c76565b60405161039a9190611f7d565b60405180910390f35b3480156103af57600080fd5b506103b8610ca6565b6040516103c5919061253c565b60405180910390f35b3480156103da57600080fd5b506103f560048036038101906103f09190612557565b610cce565b005b34801561040357600080fd5b5061041e60048036038101906104199190612177565b610d2b565b005b34801561042c57600080fd5b5061044760048036038101906104429190612621565b610d77565b604051610454919061202f565b60405180910390f35b34801561046957600080fd5b50610472610d8f565b60405161047f9190611f7d565b60405180910390f35b34801561049457600080fd5b506104af60048036038101906104aa9190612177565b610e17565b005b3480156104bd57600080fd5b506104d860048036038101906104d391906126fd565b610f57565b6040516104e5919061202f565b60405180910390f35b5050505050505050565b60007f150b7a02000000000000000000000000000000000000000000000000000000007bffffffffffffffffffffffffffffffffffffffffffffffffffffffff1916827bffffffffffffffffffffffffffffffffffffffffffffffffffffffff191614806105c357507f4e2312e0000000000000000000000000000000000000000000000000000000007bffffffffffffffffffffffffffffffffffffffffffffffffffffffff1916827bffffffffffffffffffffffffffffffffffffffffffffffffffffffff1916145b8061062b57507f01ffc9a7000000000000000000000000000000000000000000000000000000007bffffffffffffffffffffffffffffffffffffffffffffffffffffffff1916827bffffffffffffffffffffffffffffffffffffffffffffffffffffffff1916145b9050919050565b600060018261064191906127c6565b9050919050565b600063150b7a0260e01b905095945050505050565b610665610f6d565b8181905084849050146106ad576040517f08c379a00000000000000000000000000000000000000000000000000000000081526004016106a490612857565b60405180910390fd5b60005b84849050811015610768576107558585838181106106d1576106d0612877565b5b90506020020160208101906106e69190612177565b60008585858181106106fb576106fa612877565b5b905060200281019061070d91906128b5565b8080601f016020809104026020016040519081016040528093929190818152602001838380828437600081840152601f19601f8201169050808301925050505050505061103c565b808061076090612918565b9150506106b0565b5050505050565b7f000000000000000000000000000000000000000000000000000000000000000073ffffffffffffffffffffffffffffffffffffffff163073ffffffffffffffffffffffffffffffffffffffff16036107fd576040517f08c379a00000000000000000000000000000000000000000000000000000000081526004016107f4906129d2565b60405180910390fd5b7f000000000000000000000000000000000000000000000000000000000000000073ffffffffffffffffffffffffffffffffffffffff1661083c6110c0565b73ffffffffffffffffffffffffffffffffffffffff1614610892576040517f08c379a000000000000000000000000000000000000000000000000000000000815260040161088990612a64565b60405180910390fd5b61089b81611117565b6108f481600067ffffffffffffffff8111156108ba576108b9612302565b5b6040519080825280601f01601f1916602001820160405280156108ec5781602001600182028036833780820191505090505b506000611122565b50565b6000610901611290565b61090b8484611307565b9050600084806040019061091f91906128b5565b9050036109305761092f846113e5565b5b61093982611493565b9392505050565b610948610ca6565b73ffffffffffffffffffffffffffffffffffffffff1663b760faf934306040518363ffffffff1660e01b815260040161098191906124c2565b6000604051808303818588803b15801561099a57600080fd5b505af11580156109ae573d6000803e3d6000fd5b5050505050565b6109bd61152f565b6109c5610ca6565b73ffffffffffffffffffffffffffffffffffffffff1663205c287883836040518363ffffffff1660e01b81526004016109ff929190612a93565b600060405180830381600087803b158015610a1957600080fd5b505af1158015610a2d573d6000803e3d6000fd5b505050505050565b7f000000000000000000000000000000000000000000000000000000000000000073ffffffffffffffffffffffffffffffffffffffff163073ffffffffffffffffffffffffffffffffffffffff1603610ac3576040517f08c379a0000000000000000000000000000000000000000000000000000000008152600401610aba906129d2565b60405180910390fd5b7f000000000000000000000000000000000000000000000000000000000000000073ffffffffffffffffffffffffffffffffffffffff16610b026110c0565b73ffffffffffffffffffffffffffffffffffffffff1614610b58576040517f08c379a0000000000000000000000000000000000000000000000000000000008152600401610b4f90612a64565b60405180910390fd5b610b6182611117565b610b6d82826001611122565b5050565b60007f000000000000000000000000000000000000000000000000000000000000000073ffffffffffffffffffffffffffffffffffffffff163073ffffffffffffffffffffffffffffffffffffffff1614610c01576040517f08c379a0000000000000000000000000000000000000000000000000000000008152600401610bf890612b2e565b60405180910390fd5b7f360894a13ba1a3210667c828492db98dca3e2076cc3735a920a3ca505d382bbc60001b905090565b600260009054906101000a900473ffffffffffffffffffffffffffffffffffffffff1681565b6001600c9054906101000a900473ffffffffffffffffffffffffffffffffffffffff1681565b6000600160009054906101000a90046bffffffffffffffffffffffff166bffffffffffffffffffffffff16905090565b60007f0000000000000000000000000000000000000000000000000000000000000000905090565b610cd6610f6d565b610d25848484848080601f016020809104026020016040519081016040528093929190818152602001838380828437600081840152601f19601f8201169050808301925050505050505061103c565b50505050565b610d33610f6d565b80600260006101000a81548173ffffffffffffffffffffffffffffffffffffffff021916908373ffffffffffffffffffffffffffffffffffffffff16021790555050565b600063bc197c8160e01b905098975050505050505050565b6000610d99610ca6565b73ffffffffffffffffffffffffffffffffffffffff166370a08231306040518263ffffffff1660e01b8152600401610dd191906124c2565b602060405180830381865afa158015610dee573d6000803e3d6000fd5b505050506040513d601f19601f82011682018060405250810190610e129190612b63565b905090565b60008060019054906101000a900460ff16159050808015610e485750600160008054906101000a900460ff1660ff16105b80610e755750610e57306115f7565b158015610e745750600160008054906101000a900460ff1660ff16145b5b610eb4576040517f08c379a0000000000000000000000000000000000000000000000000000000008152600401610eab90612c02565b60405180910390fd5b60016000806101000a81548160ff021916908360ff1602179055508015610ef1576001600060016101000a81548160ff0219169083151502179055505b610efa8261161a565b8015610f535760008060016101000a81548160ff0219169083151502179055507f7f26b83ff96e1f2b6a682f133852f6798a09c465da95921460cefb38474024986001604051610f4a9190612c6a565b60405180910390a15b5050565b600063f23a6e6160e01b90509695505050505050565b610f75610ca6565b73ffffffffffffffffffffffffffffffffffffffff163373ffffffffffffffffffffffffffffffffffffffff161480610ffb57506001600c9054906101000a900473ffffffffffffffffffffffffffffffffffffffff1673ffffffffffffffffffffffffffffffffffffffff163373ffffffffffffffffffffffffffffffffffffffff16145b61103a576040517f08c379a000000000000000000000000000000000000000000000000000000000815260040161103190612cd1565b60405180910390fd5b565b6000808473ffffffffffffffffffffffffffffffffffffffff1684846040516110659190612d62565b60006040518083038185875af1925050503d80600081146110a2576040519150601f19603f3d011682016040523d82523d6000602084013e6110a7565b606091505b5091509150816110b957805160208201fd5b5050505050565b60006110ee7f360894a13ba1a3210667c828492db98dca3e2076cc3735a920a3ca505d382bbc60001b6116fa565b60000160009054906101000a900473ffffffffffffffffffffffffffffffffffffffff16905090565b61111f61152f565b50565b61114e7f4910fdfa16fed3260ed0e7147f7cc6da11a60208b5b9406d12a635614ffd914360001b611704565b60000160009054906101000a900460ff16156111725761116d8361170e565b61128b565b8273ffffffffffffffffffffffffffffffffffffffff166352d1902d6040518163ffffffff1660e01b8152600401602060405180830381865afa9250505080156111da57506040513d601f19601f820116820180604052508101906111d79190612d8e565b60015b611219576040517f08c379a000000000000000000000000000000000000000000000000000000000815260040161121090612e2d565b60405180910390fd5b7f360894a13ba1a3210667c828492db98dca3e2076cc3735a920a3ca505d382bbc60001b811461127e576040517f08c379a000000000000000000000000000000000000000000000000000000000815260040161127590612ebf565b60405180910390fd5b5061128a8383836117c7565b5b505050565b611298610ca6565b73ffffffffffffffffffffffffffffffffffffffff163373ffffffffffffffffffffffffffffffffffffffff1614611305576040517f08c379a00000000000000000000000000000000000000000000000000000000081526004016112fc90612f2b565b60405180910390fd5b565b600080611313836117f3565b905061137b8480610140019061132991906128b5565b8080601f016020809104026020016040519081016040528093929190818152602001838380828437600081840152601f19601f820116905080830192505050505050508261182390919063ffffffff16565b73ffffffffffffffffffffffffffffffffffffffff166001600c9054906101000a900473ffffffffffffffffffffffffffffffffffffffff1673ffffffffffffffffffffffffffffffffffffffff16146113d95760019150506113df565b60009150505b92915050565b80602001356001600081819054906101000a90046bffffffffffffffffffffffff168092919061141490612f63565b91906101000a8154816bffffffffffffffffffffffff02191690836bffffffffffffffffffffffff1602179055506bffffffffffffffffffffffff1614611490576040517f08c379a000000000000000000000000000000000000000000000000000000000815260040161148790612fe3565b60405180910390fd5b50565b6000811461152c5760003373ffffffffffffffffffffffffffffffffffffffff16827fffffffffffffffffffffffffffffffffffffffffffffffffffffffffffffffff906040516114e390613029565b600060405180830381858888f193505050503d8060008114611521576040519150601f19603f3d011682016040523d82523d6000602084013e611526565b606091505b50509050505b50565b6001600c9054906101000a900473ffffffffffffffffffffffffffffffffffffffff1673ffffffffffffffffffffffffffffffffffffffff163373ffffffffffffffffffffffffffffffffffffffff1614806115b657503073ffffffffffffffffffffffffffffffffffffffff163373ffffffffffffffffffffffffffffffffffffffff16145b6115f5576040517f08c379a00000000000000000000000000000000000000000000000000000000081526004016115ec9061308a565b60405180910390fd5b565b6000808273ffffffffffffffffffffffffffffffffffffffff163b119050919050565b806001600c6101000a81548173ffffffffffffffffffffffffffffffffffffffff021916908373ffffffffffffffffffffffffffffffffffffffff1602179055506001600c9054906101000a900473ffffffffffffffffffffffffffffffffffffffff1673ffffffffffffffffffffffffffffffffffffffff167f000000000000000000000000000000000000000000000000000000000000000073ffffffffffffffffffffffffffffffffffffffff167f47e55c76e7a6f1fd8996a1da8008c1ea29699cca35e7bcd057f2dec313b6e5de60405160405180910390a350565b6000819050919050565b6000819050919050565b611717816115f7565b611756576040517f08c379a000000000000000000000000000000000000000000000000000000000815260040161174d9061311c565b60405180910390fd5b806117837f360894a13ba1a3210667c828492db98dca3e2076cc3735a920a3ca505d382bbc60001b6116fa565b60000160006101000a81548173ffffffffffffffffffffffffffffffffffffffff021916908373ffffffffffffffffffffffffffffffffffffffff16021790555050565b6117d08361184a565b6000825111806117dd5750805b156117ee576117ec8383611899565b505b505050565b60008160405160200161180691906131b4565b604051602081830303815290604052805190602001209050919050565b600080600061183285856118c6565b9150915061183f81611917565b819250505092915050565b6118538161170e565b8073ffffffffffffffffffffffffffffffffffffffff167fbc7cd75a20ee27fd9adebab32041f755214dbc6bffa90cc0225b39da2e5c2d3b60405160405180910390a250565b60606118be838360405180606001604052806027815260200161349a60279139611a7d565b905092915050565b60008060418351036119075760008060006020860151925060408601519150606086015160001a90506118fb87828585611b03565b94509450505050611910565b60006002915091505b9250929050565b6000600481111561192b5761192a6131da565b5b81600481111561193e5761193d6131da565b5b0315611a7a5760016004811115611958576119576131da565b5b81600481111561196b5761196a6131da565b5b036119ab576040517f08c379a00000000000000000000000000000000000000000000000000000000081526004016119a290613255565b60405180910390fd5b600260048111156119bf576119be6131da565b5b8160048111156119d2576119d16131da565b5b03611a12576040517f08c379a0000000000000000000000000000000000000000000000000000000008152600401611a09906132c1565b60405180910390fd5b60036004811115611a2657611a256131da565b5b816004811115611a3957611a386131da565b5b03611a79576040517f08c379a0000000000000000000000000000000000000000000000000000000008152600401611a7090613353565b60405180910390fd5b5b50565b60606000808573ffffffffffffffffffffffffffffffffffffffff1685604051611aa79190612d62565b600060405180830381855af49150503d8060008114611ae2576040519150601f19603f3d011682016040523d82523d6000602084013e611ae7565b606091505b5091509150611af886838387611be5565b925050509392505050565b6000807f7fffffffffffffffffffffffffffffff5d576e7357a4501ddfe92f46681b20a08360001c1115611b3e576000600391509150611bdc565b600060018787878760405160008152602001604052604051611b639493929190613382565b6020604051602081039080840390855afa158015611b85573d6000803e3d6000fd5b505050602060405103519050600073ffffffffffffffffffffffffffffffffffffffff168173ffffffffffffffffffffffffffffffffffffffff1603611bd357600060019250925050611bdc565b80600092509250505b94509492505050565b60608315611c47576000835103611c3f57611bff856115f7565b611c3e576040517f08c379a0000000000000000000000000000000000000000000000000000000008152600401611c3590613413565b60405180910390fd5b5b829050611c52565b611c518383611c5a565b5b949350505050565b600082511115611c6d5781518083602001fd5b806040517f08c379a0000000000000000000000000000000000000000000000000000000008152600401611ca19190613477565b60405180910390fd5b6000604051905090565b600080fd5b600080fd5b600073ffffffffffffffffffffffffffffffffffffffff82169050919050565b6000611ce982611cbe565b9050919050565b611cf981611cde565b8114611d0457600080fd5b50565b600081359050611d1681611cf0565b92915050565b6000819050919050565b611d2f81611d1c565b8114611d3a57600080fd5b50565b600081359050611d4c81611d26565b92915050565b600080fd5b600080fd5b600080fd5b60008083601f840112611d7757611d76611d52565b5b8235905067ffffffffffffffff811115611d9457611d93611d57565b5b602083019150836001820283011115611db057611daf611d5c565b5b9250929050565b60008060008060008060008060c0898b031215611dd757611dd6611cb4565b5b6000611de58b828c01611d07565b9850506020611df68b828c01611d07565b9750506040611e078b828c01611d07565b9650506060611e188b828c01611d3d565b955050608089013567ffffffffffffffff811115611e3957611e38611cb9565b5b611e458b828c01611d61565b945094505060a089013567ffffffffffffffff811115611e6857611e67611cb9565b5b611e748b828c01611d61565b92509250509295985092959890939650565b60007fffffffff0000000000000000000000000000000000000000000000000000000082169050919050565b611ebb81611e86565b8114611ec657600080fd5b50565b600081359050611ed881611eb2565b92915050565b600060208284031215611ef457611ef3611cb4565b5b6000611f0284828501611ec9565b91505092915050565b60008115159050919050565b611f2081611f0b565b82525050565b6000602082019050611f3b6000830184611f17565b92915050565b600060208284031215611f5757611f56611cb4565b5b6000611f6584828501611d3d565b91505092915050565b611f7781611d1c565b82525050565b6000602082019050611f926000830184611f6e565b92915050565b600080600080600060808688031215611fb457611fb3611cb4565b5b6000611fc288828901611d07565b9550506020611fd388828901611d07565b9450506040611fe488828901611d3d565b935050606086013567ffffffffffffffff81111561200557612004611cb9565b5b61201188828901611d61565b92509250509295509295909350565b61202981611e86565b82525050565b60006020820190506120446000830184612020565b92915050565b60008083601f8401126120605761205f611d52565b5b8235905067ffffffffffffffff81111561207d5761207c611d57565b5b60208301915083602082028301111561209957612098611d5c565b5b9250929050565b60008083601f8401126120b6576120b5611d52565b5b8235905067ffffffffffffffff8111156120d3576120d2611d57565b5b6020830191508360208202830111156120ef576120ee611d5c565b5b9250929050565b600080600080604085870312156121105761210f611cb4565b5b600085013567ffffffffffffffff81111561212e5761212d611cb9565b5b61213a8782880161204a565b9450945050602085013567ffffffffffffffff81111561215d5761215c611cb9565b5b612169878288016120a0565b925092505092959194509250565b60006020828403121561218d5761218c611cb4565b5b600061219b84828501611d07565b91505092915050565b600080fd5b600061016082840312156121c0576121bf6121a4565b5b81905092915050565b6000819050919050565b6121dc816121c9565b81146121e757600080fd5b50565b6000813590506121f9816121d3565b92915050565b60008060006060848603121561221857612217611cb4565b5b600084013567ffffffffffffffff81111561223657612235611cb9565b5b612242868287016121a9565b9350506020612253868287016121ea565b925050604061226486828701611d3d565b9150509250925092565b600061227982611cbe565b9050919050565b6122898161226e565b811461229457600080fd5b50565b6000813590506122a681612280565b92915050565b600080604083850312156122c3576122c2611cb4565b5b60006122d185828601612297565b92505060206122e285828601611d3d565b9150509250929050565b600080fd5b6000601f19601f8301169050919050565b7f4e487b7100000000000000000000000000000000000000000000000000000000600052604160045260246000fd5b61233a826122f1565b810181811067ffffffffffffffff8211171561235957612358612302565b5b80604052505050565b600061236c611caa565b90506123788282612331565b919050565b600067ffffffffffffffff82111561239857612397612302565b5b6123a1826122f1565b9050602081019050919050565b82818337600083830152505050565b60006123d06123cb8461237d565b612362565b9050828152602081018484840111156123ec576123eb6122ec565b5b6123f78482856123ae565b509392505050565b600082601f83011261241457612413611d52565b5b81356124248482602086016123bd565b91505092915050565b6000806040838503121561244457612443611cb4565b5b600061245285828601611d07565b925050602083013567ffffffffffffffff81111561247357612472611cb9565b5b61247f858286016123ff565b9150509250929050565b612492816121c9565b82525050565b60006020820190506124ad6000830184612489565b92915050565b6124bc81611cde565b82525050565b60006020820190506124d760008301846124b3565b92915050565b6000819050919050565b60006125026124fd6124f884611cbe565b6124dd565b611cbe565b9050919050565b6000612514826124e7565b9050919050565b600061252682612509565b9050919050565b6125368161251b565b82525050565b6000602082019050612551600083018461252d565b92915050565b6000806000806060858703121561257157612570611cb4565b5b600061257f87828801611d07565b945050602061259087828801611d3d565b935050604085013567ffffffffffffffff8111156125b1576125b0611cb9565b5b6125bd87828801611d61565b925092505092959194509250565b60008083601f8401126125e1576125e0611d52565b5b8235905067ffffffffffffffff8111156125fe576125fd611d57565b5b60208301915083602082028301111561261a57612619611d5c565b5b9250929050565b60008060008060008060008060a0898b03121561264157612640611cb4565b5b600061264f8b828c01611d07565b98505060206126608b828c01611d07565b975050604089013567ffffffffffffffff81111561268157612680611cb9565b5b61268d8b828c016125cb565b9650965050606089013567ffffffffffffffff8111156126b0576126af611cb9565b5b6126bc8b828c016125cb565b9450945050608089013567ffffffffffffffff8111156126df576126de611cb9565b5b6126eb8b828c01611d61565b92509250509295985092959890939650565b60008060008060008060a0878903121561271a57612719611cb4565b5b600061272889828a01611d07565b965050602061273989828a01611d07565b955050604061274a89828a01611d3d565b945050606061275b89828a01611d3d565b935050608087013567ffffffffffffffff81111561277c5761277b611cb9565b5b61278889828a01611d61565b92509250509295509295509295565b7f4e487b7100000000000000000000000000000000000000000000000000000000600052601160045260246000fd5b60006127d182611d1c565b91506127dc83611d1c565b92508282019050808211156127f4576127f3612797565b5b92915050565b600082825260208201905092915050565b7f77726f6e67206172726179206c656e6774687300000000000000000000000000600082015250565b60006128416013836127fa565b915061284c8261280b565b602082019050919050565b6000602082019050818103600083015261287081612834565b9050919050565b7f4e487b7100000000000000000000000000000000000000000000000000000000600052603260045260246000fd5b600080fd5b600080fd5b600080fd5b600080833560016020038436030381126128d2576128d16128a6565b5b80840192508235915067ffffffffffffffff8211156128f4576128f36128ab565b5b6020830192506001820236038313156129105761290f6128b0565b5b509250929050565b600061292382611d1c565b91507fffffffffffffffffffffffffffffffffffffffffffffffffffffffffffffffff820361295557612954612797565b5b600182019050919050565b7f46756e6374696f6e206d7573742062652063616c6c6564207468726f7567682060008201527f64656c656761746563616c6c0000000000000000000000000000000000000000602082015250565b60006129bc602c836127fa565b91506129c782612960565b604082019050919050565b600060208201905081810360008301526129eb816129af565b9050919050565b7f46756e6374696f6e206d7573742062652063616c6c6564207468726f7567682060008201527f6163746976652070726f78790000000000000000000000000000000000000000602082015250565b6000612a4e602c836127fa565b9150612a59826129f2565b604082019050919050565b60006020820190508181036000830152612a7d81612a41565b9050919050565b612a8d8161226e565b82525050565b6000604082019050612aa86000830185612a84565b612ab56020830184611f6e565b9392505050565b7f555550535570677261646561626c653a206d757374206e6f742062652063616c60008201527f6c6564207468726f7567682064656c656761746563616c6c0000000000000000602082015250565b6000612b186038836127fa565b9150612b2382612abc565b604082019050919050565b60006020820190508181036000830152612b4781612b0b565b9050919050565b600081519050612b5d81611d26565b92915050565b600060208284031215612b7957612b78611cb4565b5b6000612b8784828501612b4e565b91505092915050565b7f496e697469616c697a61626c653a20636f6e747261637420697320616c72656160008201527f647920696e697469616c697a6564000000000000000000000000000000000000602082015250565b6000612bec602e836127fa565b9150612bf782612b90565b604082019050919050565b60006020820190508181036000830152612c1b81612bdf565b9050919050565b6000819050919050565b600060ff82169050919050565b6000612c54612c4f612c4a84612c22565b6124dd565b612c2c565b9050919050565b612c6481612c39565b82525050565b6000602082019050612c7f6000830184612c5b565b92915050565b7f6163636f756e743a206e6f74204f776e6572206f7220456e747279506f696e74600082015250565b6000612cbb6020836127fa565b9150612cc682612c85565b602082019050919050565b60006020820190508181036000830152612cea81612cae565b9050919050565b600081519050919050565b600081905092915050565b60005b83811015612d25578082015181840152602081019050612d0a565b60008484015250505050565b6000612d3c82612cf1565b612d468185612cfc565b9350612d56818560208601612d07565b80840191505092915050565b6000612d6e8284612d31565b915081905092915050565b600081519050612d88816121d3565b92915050565b600060208284031215612da457612da3611cb4565b5b6000612db284828501612d79565b91505092915050565b7f45524331393637557067726164653a206e657720696d706c656d656e7461746960008201527f6f6e206973206e6f742055555053000000000000000000000000000000000000602082015250565b6000612e17602e836127fa565b9150612e2282612dbb565b604082019050919050565b60006020820190508181036000830152612e4681612e0a565b9050919050565b7f45524331393637557067726164653a20756e737570706f727465642070726f7860008201527f6961626c65555549440000000000000000000000000000000000000000000000602082015250565b6000612ea96029836127fa565b9150612eb482612e4d565b604082019050919050565b60006020820190508181036000830152612ed881612e9c565b9050919050565b7f6163636f756e743a206e6f742066726f6d20456e747279506f696e7400000000600082015250565b6000612f15601c836127fa565b9150612f2082612edf565b602082019050919050565b60006020820190508181036000830152612f4481612f08565b9050919050565b60006bffffffffffffffffffffffff82169050919050565b6000612f6e82612f4b565b91506bffffffffffffffffffffffff8203612f8c57612f8b612797565b5b600182019050919050565b7f6163636f756e743a20696e76616c6964206e6f6e636500000000000000000000600082015250565b6000612fcd6016836127fa565b9150612fd882612f97565b602082019050919050565b60006020820190508181036000830152612ffc81612fc0565b9050919050565b50565b6000613013600083612cfc565b915061301e82613003565b600082019050919050565b600061303482613006565b9150819050919050565b7f6f6e6c79206f776e657200000000000000000000000000000000000000000000600082015250565b6000613074600a836127fa565b915061307f8261303e565b602082019050919050565b600060208201905081810360008301526130a381613067565b9050919050565b7f455243313936373a206e657720696d706c656d656e746174696f6e206973206e60008201527f6f74206120636f6e747261637400000000000000000000000000000000000000602082015250565b6000613106602d836127fa565b9150613111826130aa565b604082019050919050565b60006020820190508181036000830152613135816130f9565b9050919050565b600081905092915050565b7f19457468657265756d205369676e6564204d6573736167653a0a333200000000600082015250565b600061317d601c8361313c565b915061318882613147565b601c82019050919050565b6000819050919050565b6131ae6131a9826121c9565b613193565b82525050565b60006131bf82613170565b91506131cb828461319d565b60208201915081905092915050565b7f4e487b7100000000000000000000000000000000000000000000000000000000600052602160045260246000fd5b7f45434453413a20696e76616c6964207369676e61747572650000000000000000600082015250565b600061323f6018836127fa565b915061324a82613209565b602082019050919050565b6000602082019050818103600083015261326e81613232565b9050919050565b7f45434453413a20696e76616c6964207369676e6174757265206c656e67746800600082015250565b60006132ab601f836127fa565b91506132b682613275565b602082019050919050565b600060208201905081810360008301526132da8161329e565b9050919050565b7f45434453413a20696e76616c6964207369676e6174757265202773272076616c60008201527f7565000000000000000000000000000000000000000000000000000000000000602082015250565b600061333d6022836127fa565b9150613348826132e1565b604082019050919050565b6000602082019050818103600083015261336c81613330565b9050919050565b61337c81612c2c565b82525050565b60006080820190506133976000830187612489565b6133a46020830186613373565b6133b16040830185612489565b6133be6060830184612489565b95945050505050565b7f416464726573733a2063616c6c20746f206e6f6e2d636f6e7472616374000000600082015250565b60006133fd601d836127fa565b9150613408826133c7565b602082019050919050565b6000602082019050818103600083015261342c816133f0565b9050919050565b600081519050919050565b600061344982613433565b61345381856127fa565b9350613463818560208601612d07565b61346c816122f1565b840191505092915050565b60006020820190508181036000830152613491818461343e565b90509291505056fe416464726573733a206c6f772d6c6576656c2064656c65676174652063616c6c206661696c6564a2646970667358221220bc3f6cf9ce5a94753829f9695fdfa225d8a7837e36e7e3ec4dee9c4e2d1f324264736f6c63430008130033",
  "immutableReferences": {
    "9420": [
      {
        "length": 32,
        "start": 219
      },
      {
        "length": 32,
        "start": 325
      },
      {
        "length": 32,
        "start": 566
      }
    ]
  },
  "source": "// SPDX-License-Identifier: GPL-3.0\npragma solidity 0.8.19;\n\nimport '@openzeppelin/contracts/utils/Create2.sol';\nimport '@openzeppelin/contracts/proxy/ERC1967/ERC1967Proxy.sol';\n\nimport './WalletAccount.sol';\n\n/**\n * A sample factory contract for WalletAccount\n * A UserOperations \"initCode\" holds the address of the factory, and a method call (to createAccount, in this sample factory).\n * The factory's createAccount returns the target account address even if it is already installed.\n * This way, the entryPoint.getSenderAddress() can be called either before or after the account is created.\n */\ncontract WalletAccountFactory {\n  WalletAccount public immutable accountImplementation;\n\n  constructor(IEntryPoint _entryPoint) {\n    accountImplementation = new WalletAccount(_entryPoint);\n  }\n\n  /**\n   * create an account, and return its address.\n   * returns the address even if the account is already deployed.\n   * Note that during UserOperation execution, this method is called only if the account is not deployed.\n   * This method returns an existing account address so that entryPoint.getSenderAddress() would work even after account creation\n   */\n  function createAccount(\n    address owner,\n    uint256 salt\n  ) public returns (WalletAccount ret) {\n    address addr = getAddress(owner, salt);\n    uint codeSize = addr.code.length;\n    if (codeSize > 0) {\n      return WalletAccount(payable(addr));\n    }\n    ret = WalletAccount(\n      payable(\n        new ERC1967Proxy{salt: bytes32(salt)}(\n          address(accountImplementation),\n          abi.encodeCall(WalletAccount.initialize, (owner))\n        )\n      )\n    );\n  }\n\n  /**\n   * calculate the counterfactual address of this account as it would be returned by createAccount()\n   */\n  function getAddress(\n    address owner,\n    uint256 salt\n  ) public view returns (address) {\n    return\n      Create2.computeAddress(\n        bytes32(salt),\n        keccak256(\n          abi.encodePacked(\n            type(ERC1967Proxy).creationCode,\n            abi.encode(\n              address(accountImplementation),\n              abi.encodeCall(WalletAccount.initialize, (owner))\n            )\n          )\n        )\n      );\n  }\n}\n",
  "sourcePath": "/Users/Nobu/Documents/Works/web3/metamask-snap/template-snap-monorepo/account-abstraction/contracts/samples/WalletAccountFactory.sol",
  "compiler": {
    "name": "solc",
    "version": "0.8.19+commit.7dd6d404.Emscripten.clang"
  },
  "schemaVersion": "3.4.13",
  "updatedAt": "2023-04-10T09:43:20.168Z",
  "networkType": "ethereum",
  "devdoc": {
    "kind": "dev",
    "methods": {},
    "version": 1
  },
  "userdoc": {
    "kind": "user",
    "methods": {
      "createAccount(address,uint256)": {
        "notice": "create an account, and return its address. returns the address even if the account is already deployed. Note that during UserOperation execution, this method is called only if the account is not deployed. This method returns an existing account address so that entryPoint.getSenderAddress() would work even after account creation"
      },
      "getAddress(address,uint256)": {
        "notice": "calculate the counterfactual address of this account as it would be returned by createAccount()"
      }
    },
    "notice": "A sample factory contract for WalletAccount A UserOperations \"initCode\" holds the address of the factory, and a method call (to createAccount, in this sample factory). The factory's createAccount returns the target account address even if it is already installed. This way, the entryPoint.getSenderAddress() can be called either before or after the account is created.",
    "version": 1
  }
}