{
  "contractName": "WalletAccount",
  "abi": [
    {
      "inputs": [
        {
          "internalType": "contract IEntryPoint",
          "name": "anEntryPoint",
          "type": "address"
        }
      ],
      "stateMutability": "nonpayable",
      "type": "constructor"
    },
    {
      "anonymous": false,
      "inputs": [
        {
          "indexed": false,
          "internalType": "address",
          "name": "previousAdmin",
          "type": "address"
        },
        {
          "indexed": false,
          "internalType": "address",
          "name": "newAdmin",
          "type": "address"
        }
      ],
      "name": "AdminChanged",
      "type": "event"
    },
    {
      "anonymous": false,
      "inputs": [
        {
          "indexed": true,
          "internalType": "address",
          "name": "beacon",
          "type": "address"
        }
      ],
      "name": "BeaconUpgraded",
      "type": "event"
    },
    {
      "anonymous": false,
      "inputs": [
        {
          "indexed": false,
          "internalType": "uint8",
          "name": "version",
          "type": "uint8"
        }
      ],
      "name": "Initialized",
      "type": "event"
    },
    {
      "anonymous": false,
      "inputs": [
        {
          "indexed": false,
          "internalType": "address",
          "name": "secondOwner",
          "type": "address"
        }
      ],
      "name": "SecondOwner",
      "type": "event"
    },
    {
      "anonymous": false,
      "inputs": [
        {
          "indexed": true,
          "internalType": "contract IEntryPoint",
          "name": "entryPoint",
          "type": "address"
        },
        {
          "indexed": true,
          "internalType": "address",
          "name": "owner",
          "type": "address"
        }
      ],
      "name": "SimpleAccountInitialized",
      "type": "event"
    },
    {
      "anonymous": false,
      "inputs": [
        {
          "indexed": true,
          "internalType": "address",
          "name": "implementation",
          "type": "address"
        }
      ],
      "name": "Upgraded",
      "type": "event"
    },
    {
      "inputs": [],
      "name": "escapeAddress",
      "outputs": [
        {
          "internalType": "address",
          "name": "",
          "type": "address"
        }
      ],
      "stateMutability": "view",
      "type": "function"
    },
    {
      "inputs": [
        {
          "internalType": "address",
          "name": "",
          "type": "address"
        },
        {
          "internalType": "address",
          "name": "",
          "type": "address"
        },
        {
          "internalType": "uint256[]",
          "name": "",
          "type": "uint256[]"
        },
        {
          "internalType": "uint256[]",
          "name": "",
          "type": "uint256[]"
        },
        {
          "internalType": "bytes",
          "name": "",
          "type": "bytes"
        }
      ],
      "name": "onERC1155BatchReceived",
      "outputs": [
        {
          "internalType": "bytes4",
          "name": "",
          "type": "bytes4"
        }
      ],
      "stateMutability": "pure",
      "type": "function"
    },
    {
      "inputs": [
        {
          "internalType": "address",
          "name": "",
          "type": "address"
        },
        {
          "internalType": "address",
          "name": "",
          "type": "address"
        },
        {
          "internalType": "uint256",
          "name": "",
          "type": "uint256"
        },
        {
          "internalType": "uint256",
          "name": "",
          "type": "uint256"
        },
        {
          "internalType": "bytes",
          "name": "",
          "type": "bytes"
        }
      ],
      "name": "onERC1155Received",
      "outputs": [
        {
          "internalType": "bytes4",
          "name": "",
          "type": "bytes4"
        }
      ],
      "stateMutability": "pure",
      "type": "function"
    },
    {
      "inputs": [
        {
          "internalType": "address",
          "name": "",
          "type": "address"
        },
        {
          "internalType": "address",
          "name": "",
          "type": "address"
        },
        {
          "internalType": "uint256",
          "name": "",
          "type": "uint256"
        },
        {
          "internalType": "bytes",
          "name": "",
          "type": "bytes"
        }
      ],
      "name": "onERC721Received",
      "outputs": [
        {
          "internalType": "bytes4",
          "name": "",
          "type": "bytes4"
        }
      ],
      "stateMutability": "pure",
      "type": "function"
    },
    {
      "inputs": [],
      "name": "owner",
      "outputs": [
        {
          "internalType": "address",
          "name": "",
          "type": "address"
        }
      ],
      "stateMutability": "view",
      "type": "function"
    },
    {
      "inputs": [],
      "name": "pkpAddress",
      "outputs": [
        {
          "internalType": "address",
          "name": "",
          "type": "address"
        }
      ],
      "stateMutability": "view",
      "type": "function"
    },
    {
      "inputs": [],
      "name": "proxiableUUID",
      "outputs": [
        {
          "internalType": "bytes32",
          "name": "",
          "type": "bytes32"
        }
      ],
      "stateMutability": "view",
      "type": "function"
    },
    {
      "inputs": [],
      "name": "secondOwner",
      "outputs": [
        {
          "internalType": "address",
          "name": "",
          "type": "address"
        }
      ],
      "stateMutability": "view",
      "type": "function"
    },
    {
      "inputs": [
        {
          "internalType": "bytes4",
          "name": "interfaceId",
          "type": "bytes4"
        }
      ],
      "name": "supportsInterface",
      "outputs": [
        {
          "internalType": "bool",
          "name": "",
          "type": "bool"
        }
      ],
      "stateMutability": "view",
      "type": "function"
    },
    {
      "inputs": [
        {
          "internalType": "address",
          "name": "",
          "type": "address"
        },
        {
          "internalType": "address",
          "name": "",
          "type": "address"
        },
        {
          "internalType": "address",
          "name": "",
          "type": "address"
        },
        {
          "internalType": "uint256",
          "name": "",
          "type": "uint256"
        },
        {
          "internalType": "bytes",
          "name": "",
          "type": "bytes"
        },
        {
          "internalType": "bytes",
          "name": "",
          "type": "bytes"
        }
      ],
      "name": "tokensReceived",
      "outputs": [],
      "stateMutability": "pure",
      "type": "function"
    },
    {
      "inputs": [
        {
          "internalType": "address",
          "name": "newImplementation",
          "type": "address"
        }
      ],
      "name": "upgradeTo",
      "outputs": [],
      "stateMutability": "nonpayable",
      "type": "function"
    },
    {
      "inputs": [
        {
          "internalType": "address",
          "name": "newImplementation",
          "type": "address"
        },
        {
          "internalType": "bytes",
          "name": "data",
          "type": "bytes"
        }
      ],
      "name": "upgradeToAndCall",
      "outputs": [],
      "stateMutability": "payable",
      "type": "function"
    },
    {
      "inputs": [
        {
          "components": [
            {
              "internalType": "address",
              "name": "sender",
              "type": "address"
            },
            {
              "internalType": "uint256",
              "name": "nonce",
              "type": "uint256"
            },
            {
              "internalType": "bytes",
              "name": "initCode",
              "type": "bytes"
            },
            {
              "internalType": "bytes",
              "name": "callData",
              "type": "bytes"
            },
            {
              "internalType": "uint256",
              "name": "callGasLimit",
              "type": "uint256"
            },
            {
              "internalType": "uint256",
              "name": "verificationGasLimit",
              "type": "uint256"
            },
            {
              "internalType": "uint256",
              "name": "preVerificationGas",
              "type": "uint256"
            },
            {
              "internalType": "uint256",
              "name": "maxFeePerGas",
              "type": "uint256"
            },
            {
              "internalType": "uint256",
              "name": "maxPriorityFeePerGas",
              "type": "uint256"
            },
            {
              "internalType": "bytes",
              "name": "paymasterAndData",
              "type": "bytes"
            },
            {
              "internalType": "bytes",
              "name": "signature",
              "type": "bytes"
            }
          ],
          "internalType": "struct UserOperation",
          "name": "userOp",
          "type": "tuple"
        },
        {
          "internalType": "bytes32",
          "name": "userOpHash",
          "type": "bytes32"
        },
        {
          "internalType": "uint256",
          "name": "missingAccountFunds",
          "type": "uint256"
        }
      ],
      "name": "validateUserOp",
      "outputs": [
        {
          "internalType": "uint256",
          "name": "validationData",
          "type": "uint256"
        }
      ],
      "stateMutability": "nonpayable",
      "type": "function"
    },
    {
      "stateMutability": "payable",
      "type": "receive"
    },
    {
      "inputs": [],
      "name": "nonce",
      "outputs": [
        {
          "internalType": "uint256",
          "name": "",
          "type": "uint256"
        }
      ],
      "stateMutability": "view",
      "type": "function"
    },
    {
      "inputs": [],
      "name": "entryPoint",
      "outputs": [
        {
          "internalType": "contract IEntryPoint",
          "name": "",
          "type": "address"
        }
      ],
      "stateMutability": "view",
      "type": "function"
    },
    {
      "inputs": [
        {
          "internalType": "address",
          "name": "dest",
          "type": "address"
        },
        {
          "internalType": "uint256",
          "name": "value",
          "type": "uint256"
        },
        {
          "internalType": "bytes",
          "name": "func",
          "type": "bytes"
        }
      ],
      "name": "execute",
      "outputs": [],
      "stateMutability": "nonpayable",
      "type": "function"
    },
    {
      "inputs": [
        {
          "internalType": "address[]",
          "name": "dest",
          "type": "address[]"
        },
        {
          "internalType": "bytes[]",
          "name": "func",
          "type": "bytes[]"
        }
      ],
      "name": "executeBatch",
      "outputs": [],
      "stateMutability": "nonpayable",
      "type": "function"
    },
    {
      "inputs": [
        {
          "internalType": "address",
          "name": "anOwner",
          "type": "address"
        }
      ],
      "name": "initialize",
      "outputs": [],
      "stateMutability": "nonpayable",
      "type": "function"
    },
    {
      "inputs": [
        {
          "internalType": "address",
          "name": "_secondOwner",
          "type": "address"
        }
      ],
      "name": "setSecondOwner",
      "outputs": [],
      "stateMutability": "nonpayable",
      "type": "function"
    },
    {
      "inputs": [
        {
          "internalType": "address",
          "name": "_escapeAddress",
          "type": "address"
        },
        {
          "internalType": "address",
          "name": "_pkpAddress",
          "type": "address"
        }
      ],
      "name": "setupSocialRecovery",
      "outputs": [],
      "stateMutability": "nonpayable",
      "type": "function"
    },
    {
      "inputs": [],
      "name": "executeSocialRecovery",
      "outputs": [],
      "stateMutability": "nonpayable",
      "type": "function"
    },
    {
      "inputs": [],
      "name": "getDeposit",
      "outputs": [
        {
          "internalType": "uint256",
          "name": "",
          "type": "uint256"
        }
      ],
      "stateMutability": "view",
      "type": "function"
    },
    {
      "inputs": [],
      "name": "addDeposit",
      "outputs": [],
      "stateMutability": "payable",
      "type": "function"
    },
    {
      "inputs": [
        {
          "internalType": "address payable",
          "name": "withdrawAddress",
          "type": "address"
        },
        {
          "internalType": "uint256",
          "name": "amount",
          "type": "uint256"
        }
      ],
      "name": "withdrawDepositTo",
      "outputs": [],
      "stateMutability": "nonpayable",
      "type": "function"
    }
  ],
  "bytecode": "0x60c06040523073ffffffffffffffffffffffffffffffffffffffff1660809073ffffffffffffffffffffffffffffffffffffffff168152503480156200004457600080fd5b5060405162003ea838038062003ea883398181016040528101906200006a9190620001fa565b8073ffffffffffffffffffffffffffffffffffffffff1660a08173ffffffffffffffffffffffffffffffffffffffff1681525050620000ae620000b560201b60201c565b5062000310565b600060019054906101000a900460ff161562000108576040517f08c379a0000000000000000000000000000000000000000000000000000000008152600401620000ff90620002b3565b60405180910390fd5b60ff801660008054906101000a900460ff1660ff1610156200017a5760ff6000806101000a81548160ff021916908360ff1602179055507f7f26b83ff96e1f2b6a682f133852f6798a09c465da95921460cefb384740249860ff604051620001719190620002f3565b60405180910390a15b565b600080fd5b600073ffffffffffffffffffffffffffffffffffffffff82169050919050565b6000620001ae8262000181565b9050919050565b6000620001c282620001a1565b9050919050565b620001d481620001b5565b8114620001e057600080fd5b50565b600081519050620001f481620001c9565b92915050565b6000602082840312156200021357620002126200017c565b5b60006200022384828501620001e3565b91505092915050565b600082825260208201905092915050565b7f496e697469616c697a61626c653a20636f6e747261637420697320696e69746960008201527f616c697a696e6700000000000000000000000000000000000000000000000000602082015250565b60006200029b6027836200022c565b9150620002a8826200023d565b604082019050919050565b60006020820190508181036000830152620002ce816200028c565b9050919050565b600060ff82169050919050565b620002ed81620002d5565b82525050565b60006020820190506200030a6000830184620002e2565b92915050565b60805160a051613b4f6200035960003960008181610e120152611ab30152600081816107d50152818161086301528181610b9f01528181610c2d0152610cdd0152613b4f6000f3fe60806040526004361061014e5760003560e01c80638da5cb5b116100b6578063c399ec881161006f578063c399ec8814610458578063c4d66de814610483578063c7c8e4ed146104ac578063e384822c146104d7578063f23a6e6114610500578063fbb10ae61461053d57610155565b80638da5cb5b14610348578063affed0e014610373578063b0d691fe1461039e578063b61d27f6146103c9578063bbedb64b146103f2578063bc197c811461041b57610155565b80634a58db19116101085780634a58db191461028c5780634d44560d146102965780634deafa38146102bf5780634f1ef286146102d657806352d1902d146102f257806368a9f31c1461031d57610155565b806223de291461015a57806301ffc9a714610183578063150b7a02146101c057806318dfb3c7146101fd5780633659cfe6146102265780633a871cdd1461024f57610155565b3661015557005b600080fd5b34801561016657600080fd5b50610181600480360381019061017c9190612281565b610568565b005b34801561018f57600080fd5b506101aa60048036038101906101a591906123a8565b610572565b6040516101b791906123f0565b60405180910390f35b3480156101cc57600080fd5b506101e760048036038101906101e2919061240b565b6106ac565b6040516101f491906124a2565b60405180910390f35b34801561020957600080fd5b50610224600480360381019061021f9190612569565b6106c1565b005b34801561023257600080fd5b5061024d600480360381019061024891906125ea565b6107d3565b005b34801561025b57600080fd5b5061027660048036038101906102719190612672565b61095b565b60405161028391906126f0565b60405180910390f35b6102946109a4565b005b3480156102a257600080fd5b506102bd60048036038101906102b89190612749565b610a19565b005b3480156102cb57600080fd5b506102d4610a99565b005b6102f060048036038101906102eb91906128ca565b610b9d565b005b3480156102fe57600080fd5b50610307610cd9565b6040516103149190612935565b60405180910390f35b34801561032957600080fd5b50610332610d92565b60405161033f919061295f565b60405180910390f35b34801561035457600080fd5b5061035d610db8565b60405161036a919061295f565b60405180910390f35b34801561037f57600080fd5b50610388610dde565b60405161039591906126f0565b60405180910390f35b3480156103aa57600080fd5b506103b3610e0e565b6040516103c091906129d9565b60405180910390f35b3480156103d557600080fd5b506103f060048036038101906103eb91906129f4565b610e36565b005b3480156103fe57600080fd5b50610419600480360381019061041491906125ea565b610e93565b005b34801561042757600080fd5b50610442600480360381019061043d9190612abe565b610fc9565b60405161044f91906124a2565b60405180910390f35b34801561046457600080fd5b5061046d610fe1565b60405161047a91906126f0565b60405180910390f35b34801561048f57600080fd5b506104aa60048036038101906104a591906125ea565b611069565b005b3480156104b857600080fd5b506104c16111a9565b6040516104ce919061295f565b60405180910390f35b3480156104e357600080fd5b506104fe60048036038101906104f99190612b9a565b6111cf565b005b34801561050c57600080fd5b5061052760048036038101906105229190612bda565b61125d565b60405161053491906124a2565b60405180910390f35b34801561054957600080fd5b50610552611273565b60405161055f919061295f565b60405180910390f35b5050505050505050565b60007f150b7a02000000000000000000000000000000000000000000000000000000007bffffffffffffffffffffffffffffffffffffffffffffffffffffffff1916827bffffffffffffffffffffffffffffffffffffffffffffffffffffffff1916148061063d57507f4e2312e0000000000000000000000000000000000000000000000000000000007bffffffffffffffffffffffffffffffffffffffffffffffffffffffff1916827bffffffffffffffffffffffffffffffffffffffffffffffffffffffff1916145b806106a557507f01ffc9a7000000000000000000000000000000000000000000000000000000007bffffffffffffffffffffffffffffffffffffffffffffffffffffffff1916827bffffffffffffffffffffffffffffffffffffffffffffffffffffffff1916145b9050919050565b600063150b7a0260e01b905095945050505050565b6106c9611299565b818190508484905014610711576040517f08c379a000000000000000000000000000000000000000000000000000000000815260040161070890612cd1565b60405180910390fd5b60005b848490508110156107cc576107b985858381811061073557610734612cf1565b5b905060200201602081019061074a91906125ea565b600085858581811061075f5761075e612cf1565b5b90506020028101906107719190612d2f565b8080601f016020809104026020016040519081016040528093929190818152602001838380828437600081840152601f19601f82011690508083019250505050505050611368565b80806107c490612dc1565b915050610714565b5050505050565b7f000000000000000000000000000000000000000000000000000000000000000073ffffffffffffffffffffffffffffffffffffffff163073ffffffffffffffffffffffffffffffffffffffff1603610861576040517f08c379a000000000000000000000000000000000000000000000000000000000815260040161085890612e7b565b60405180910390fd5b7f000000000000000000000000000000000000000000000000000000000000000073ffffffffffffffffffffffffffffffffffffffff166108a06113ec565b73ffffffffffffffffffffffffffffffffffffffff16146108f6576040517f08c379a00000000000000000000000000000000000000000000000000000000081526004016108ed90612f0d565b60405180910390fd5b6108ff81611443565b61095881600067ffffffffffffffff81111561091e5761091d61279f565b5b6040519080825280601f01601f1916602001820160405280156109505781602001600182028036833780820191505090505b50600061144e565b50565b60006109656115bc565b61096f8484611633565b905060008480604001906109839190612d2f565b9050036109945761099384611770565b5b61099d8261181e565b9392505050565b6109ac610e0e565b73ffffffffffffffffffffffffffffffffffffffff1663b760faf934306040518363ffffffff1660e01b81526004016109e5919061295f565b6000604051808303818588803b1580156109fe57600080fd5b505af1158015610a12573d6000803e3d6000fd5b5050505050565b610a216118ba565b610a29610e0e565b73ffffffffffffffffffffffffffffffffffffffff1663205c287883836040518363ffffffff1660e01b8152600401610a63929190612f3c565b600060405180830381600087803b158015610a7d57600080fd5b505af1158015610a91573d6000803e3d6000fd5b505050505050565b610aa1611982565b600073ffffffffffffffffffffffffffffffffffffffff16600460009054906101000a900473ffffffffffffffffffffffffffffffffffffffff1673ffffffffffffffffffffffffffffffffffffffff1603610b32576040517f08c379a0000000000000000000000000000000000000000000000000000000008152600401610b2990612fb1565b60405180910390fd5b600460009054906101000a900473ffffffffffffffffffffffffffffffffffffffff1673ffffffffffffffffffffffffffffffffffffffff166108fc479081150290604051600060405180830381858888f19350505050158015610b9a573d6000803e3d6000fd5b50565b7f000000000000000000000000000000000000000000000000000000000000000073ffffffffffffffffffffffffffffffffffffffff163073ffffffffffffffffffffffffffffffffffffffff1603610c2b576040517f08c379a0000000000000000000000000000000000000000000000000000000008152600401610c2290612e7b565b60405180910390fd5b7f000000000000000000000000000000000000000000000000000000000000000073ffffffffffffffffffffffffffffffffffffffff16610c6a6113ec565b73ffffffffffffffffffffffffffffffffffffffff1614610cc0576040517f08c379a0000000000000000000000000000000000000000000000000000000008152600401610cb790612f0d565b60405180910390fd5b610cc982611443565b610cd58282600161144e565b5050565b60007f000000000000000000000000000000000000000000000000000000000000000073ffffffffffffffffffffffffffffffffffffffff163073ffffffffffffffffffffffffffffffffffffffff1614610d69576040517f08c379a0000000000000000000000000000000000000000000000000000000008152600401610d6090613043565b60405180910390fd5b7f360894a13ba1a3210667c828492db98dca3e2076cc3735a920a3ca505d382bbc60001b905090565b600260009054906101000a900473ffffffffffffffffffffffffffffffffffffffff1681565b6001600c9054906101000a900473ffffffffffffffffffffffffffffffffffffffff1681565b6000600160009054906101000a90046bffffffffffffffffffffffff166bffffffffffffffffffffffff16905090565b60007f0000000000000000000000000000000000000000000000000000000000000000905090565b610e3e611299565b610e8d848484848080601f016020809104026020016040519081016040528093929190818152602001838380828437600081840152601f19601f82011690508083019250505050505050611368565b50505050565b610e9b6118ba565b600073ffffffffffffffffffffffffffffffffffffffff16600260009054906101000a900473ffffffffffffffffffffffffffffffffffffffff1673ffffffffffffffffffffffffffffffffffffffff1614610f2c576040517f08c379a0000000000000000000000000000000000000000000000000000000008152600401610f23906130af565b60405180910390fd5b80600260006101000a81548173ffffffffffffffffffffffffffffffffffffffff021916908373ffffffffffffffffffffffffffffffffffffffff1602179055507fd9f7b34fba24e4e88ecc6055d049d20c4d176247db160d2ae43340c7e17c73ac600260009054906101000a900473ffffffffffffffffffffffffffffffffffffffff16604051610fbe919061295f565b60405180910390a150565b600063bc197c8160e01b905098975050505050505050565b6000610feb610e0e565b73ffffffffffffffffffffffffffffffffffffffff166370a08231306040518263ffffffff1660e01b8152600401611023919061295f565b602060405180830381865afa158015611040573d6000803e3d6000fd5b505050506040513d601f19601f8201168201806040525081019061106491906130e4565b905090565b60008060019054906101000a900460ff1615905080801561109a5750600160008054906101000a900460ff1660ff16105b806110c757506110a930611a14565b1580156110c65750600160008054906101000a900460ff1660ff16145b5b611106576040517f08c379a00000000000000000000000000000000000000000000000000000000081526004016110fd90613183565b60405180910390fd5b60016000806101000a81548160ff021916908360ff1602179055508015611143576001600060016101000a81548160ff0219169083151502179055505b61114c82611a37565b80156111a55760008060016101000a81548160ff0219169083151502179055507f7f26b83ff96e1f2b6a682f133852f6798a09c465da95921460cefb3847402498600160405161119c91906131eb565b60405180910390a15b5050565b600460009054906101000a900473ffffffffffffffffffffffffffffffffffffffff1681565b6111d7611b17565b81600460006101000a81548173ffffffffffffffffffffffffffffffffffffffff021916908373ffffffffffffffffffffffffffffffffffffffff16021790555080600360006101000a81548173ffffffffffffffffffffffffffffffffffffffff021916908373ffffffffffffffffffffffffffffffffffffffff1602179055505050565b600063f23a6e6160e01b90509695505050505050565b600360009054906101000a900473ffffffffffffffffffffffffffffffffffffffff1681565b6112a1610e0e565b73ffffffffffffffffffffffffffffffffffffffff163373ffffffffffffffffffffffffffffffffffffffff16148061132757506001600c9054906101000a900473ffffffffffffffffffffffffffffffffffffffff1673ffffffffffffffffffffffffffffffffffffffff163373ffffffffffffffffffffffffffffffffffffffff16145b611366576040517f08c379a000000000000000000000000000000000000000000000000000000000815260040161135d90613252565b60405180910390fd5b565b6000808473ffffffffffffffffffffffffffffffffffffffff16848460405161139191906132e3565b60006040518083038185875af1925050503d80600081146113ce576040519150601f19603f3d011682016040523d82523d6000602084013e6113d3565b606091505b5091509150816113e557805160208201fd5b5050505050565b600061141a7f360894a13ba1a3210667c828492db98dca3e2076cc3735a920a3ca505d382bbc60001b611bc4565b60000160009054906101000a900473ffffffffffffffffffffffffffffffffffffffff16905090565b61144b6118ba565b50565b61147a7f4910fdfa16fed3260ed0e7147f7cc6da11a60208b5b9406d12a635614ffd914360001b611bce565b60000160009054906101000a900460ff161561149e5761149983611bd8565b6115b7565b8273ffffffffffffffffffffffffffffffffffffffff166352d1902d6040518163ffffffff1660e01b8152600401602060405180830381865afa92505050801561150657506040513d601f19601f82011682018060405250810190611503919061330f565b60015b611545576040517f08c379a000000000000000000000000000000000000000000000000000000000815260040161153c906133ae565b60405180910390fd5b7f360894a13ba1a3210667c828492db98dca3e2076cc3735a920a3ca505d382bbc60001b81146115aa576040517f08c379a00000000000000000000000000000000000000000000000000000000081526004016115a190613440565b60405180910390fd5b506115b6838383611c91565b5b505050565b6115c4610e0e565b73ffffffffffffffffffffffffffffffffffffffff163373ffffffffffffffffffffffffffffffffffffffff1614611631576040517f08c379a0000000000000000000000000000000000000000000000000000000008152600401611628906134ac565b60405180910390fd5b565b60008073ffffffffffffffffffffffffffffffffffffffff16600260009054906101000a900473ffffffffffffffffffffffffffffffffffffffff1673ffffffffffffffffffffffffffffffffffffffff160361176557600061169583611cbd565b90506116fd848061014001906116ab9190612d2f565b8080601f016020809104026020016040519081016040528093929190818152602001838380828437600081840152601f19601f8201169050808301925050505050505082611ced90919063ffffffff16565b73ffffffffffffffffffffffffffffffffffffffff166001600c9054906101000a900473ffffffffffffffffffffffffffffffffffffffff1673ffffffffffffffffffffffffffffffffffffffff161461175b57600191505061176a565b600091505061176a565b600090505b92915050565b80602001356001600081819054906101000a90046bffffffffffffffffffffffff168092919061179f906134e4565b91906101000a8154816bffffffffffffffffffffffff02191690836bffffffffffffffffffffffff1602179055506bffffffffffffffffffffffff161461181b576040517f08c379a000000000000000000000000000000000000000000000000000000000815260040161181290613564565b60405180910390fd5b50565b600081146118b75760003373ffffffffffffffffffffffffffffffffffffffff16827fffffffffffffffffffffffffffffffffffffffffffffffffffffffffffffffff9060405161186e906135aa565b600060405180830381858888f193505050503d80600081146118ac576040519150601f19603f3d011682016040523d82523d6000602084013e6118b1565b606091505b50509050505b50565b6001600c9054906101000a900473ffffffffffffffffffffffffffffffffffffffff1673ffffffffffffffffffffffffffffffffffffffff163373ffffffffffffffffffffffffffffffffffffffff16148061194157503073ffffffffffffffffffffffffffffffffffffffff163373ffffffffffffffffffffffffffffffffffffffff16145b611980576040517f08c379a00000000000000000000000000000000000000000000000000000000081526004016119779061360b565b60405180910390fd5b565b600360009054906101000a900473ffffffffffffffffffffffffffffffffffffffff1673ffffffffffffffffffffffffffffffffffffffff163373ffffffffffffffffffffffffffffffffffffffff1614611a12576040517f08c379a0000000000000000000000000000000000000000000000000000000008152600401611a0990613677565b60405180910390fd5b565b6000808273ffffffffffffffffffffffffffffffffffffffff163b119050919050565b806001600c6101000a81548173ffffffffffffffffffffffffffffffffffffffff021916908373ffffffffffffffffffffffffffffffffffffffff1602179055506001600c9054906101000a900473ffffffffffffffffffffffffffffffffffffffff1673ffffffffffffffffffffffffffffffffffffffff167f000000000000000000000000000000000000000000000000000000000000000073ffffffffffffffffffffffffffffffffffffffff167f47e55c76e7a6f1fd8996a1da8008c1ea29699cca35e7bcd057f2dec313b6e5de60405160405180910390a350565b611b1f610e0e565b73ffffffffffffffffffffffffffffffffffffffff163373ffffffffffffffffffffffffffffffffffffffff161480611b8357503073ffffffffffffffffffffffffffffffffffffffff163373ffffffffffffffffffffffffffffffffffffffff16145b611bc2576040517f08c379a0000000000000000000000000000000000000000000000000000000008152600401611bb9906136e3565b60405180910390fd5b565b6000819050919050565b6000819050919050565b611be181611a14565b611c20576040517f08c379a0000000000000000000000000000000000000000000000000000000008152600401611c1790613775565b60405180910390fd5b80611c4d7f360894a13ba1a3210667c828492db98dca3e2076cc3735a920a3ca505d382bbc60001b611bc4565b60000160006101000a81548173ffffffffffffffffffffffffffffffffffffffff021916908373ffffffffffffffffffffffffffffffffffffffff16021790555050565b611c9a83611d14565b600082511180611ca75750805b15611cb857611cb68383611d63565b505b505050565b600081604051602001611cd0919061380d565b604051602081830303815290604052805190602001209050919050565b6000806000611cfc8585611d90565b91509150611d0981611de1565b819250505092915050565b611d1d81611bd8565b8073ffffffffffffffffffffffffffffffffffffffff167fbc7cd75a20ee27fd9adebab32041f755214dbc6bffa90cc0225b39da2e5c2d3b60405160405180910390a250565b6060611d888383604051806060016040528060278152602001613af360279139611f47565b905092915050565b6000806041835103611dd15760008060006020860151925060408601519150606086015160001a9050611dc587828585611fcd565b94509450505050611dda565b60006002915091505b9250929050565b60006004811115611df557611df4613833565b5b816004811115611e0857611e07613833565b5b0315611f445760016004811115611e2257611e21613833565b5b816004811115611e3557611e34613833565b5b03611e75576040517f08c379a0000000000000000000000000000000000000000000000000000000008152600401611e6c906138ae565b60405180910390fd5b60026004811115611e8957611e88613833565b5b816004811115611e9c57611e9b613833565b5b03611edc576040517f08c379a0000000000000000000000000000000000000000000000000000000008152600401611ed39061391a565b60405180910390fd5b60036004811115611ef057611eef613833565b5b816004811115611f0357611f02613833565b5b03611f43576040517f08c379a0000000000000000000000000000000000000000000000000000000008152600401611f3a906139ac565b60405180910390fd5b5b50565b60606000808573ffffffffffffffffffffffffffffffffffffffff1685604051611f7191906132e3565b600060405180830381855af49150503d8060008114611fac576040519150601f19603f3d011682016040523d82523d6000602084013e611fb1565b606091505b5091509150611fc2868383876120af565b925050509392505050565b6000807f7fffffffffffffffffffffffffffffff5d576e7357a4501ddfe92f46681b20a08360001c11156120085760006003915091506120a6565b60006001878787876040516000815260200160405260405161202d94939291906139db565b6020604051602081039080840390855afa15801561204f573d6000803e3d6000fd5b505050602060405103519050600073ffffffffffffffffffffffffffffffffffffffff168173ffffffffffffffffffffffffffffffffffffffff160361209d576000600192509250506120a6565b80600092509250505b94509492505050565b60608315612111576000835103612109576120c985611a14565b612108576040517f08c379a00000000000000000000000000000000000000000000000000000000081526004016120ff90613a6c565b60405180910390fd5b5b82905061211c565b61211b8383612124565b5b949350505050565b6000825111156121375781518083602001fd5b806040517f08c379a000000000000000000000000000000000000000000000000000000000815260040161216b9190613ad0565b60405180910390fd5b6000604051905090565b600080fd5b600080fd5b600073ffffffffffffffffffffffffffffffffffffffff82169050919050565b60006121b382612188565b9050919050565b6121c3816121a8565b81146121ce57600080fd5b50565b6000813590506121e0816121ba565b92915050565b6000819050919050565b6121f9816121e6565b811461220457600080fd5b50565b600081359050612216816121f0565b92915050565b600080fd5b600080fd5b600080fd5b60008083601f8401126122415761224061221c565b5b8235905067ffffffffffffffff81111561225e5761225d612221565b5b60208301915083600182028301111561227a57612279612226565b5b9250929050565b60008060008060008060008060c0898b0312156122a1576122a061217e565b5b60006122af8b828c016121d1565b98505060206122c08b828c016121d1565b97505060406122d18b828c016121d1565b96505060606122e28b828c01612207565b955050608089013567ffffffffffffffff81111561230357612302612183565b5b61230f8b828c0161222b565b945094505060a089013567ffffffffffffffff81111561233257612331612183565b5b61233e8b828c0161222b565b92509250509295985092959890939650565b60007fffffffff0000000000000000000000000000000000000000000000000000000082169050919050565b61238581612350565b811461239057600080fd5b50565b6000813590506123a28161237c565b92915050565b6000602082840312156123be576123bd61217e565b5b60006123cc84828501612393565b91505092915050565b60008115159050919050565b6123ea816123d5565b82525050565b600060208201905061240560008301846123e1565b92915050565b6000806000806000608086880312156124275761242661217e565b5b6000612435888289016121d1565b9550506020612446888289016121d1565b945050604061245788828901612207565b935050606086013567ffffffffffffffff81111561247857612477612183565b5b6124848882890161222b565b92509250509295509295909350565b61249c81612350565b82525050565b60006020820190506124b76000830184612493565b92915050565b60008083601f8401126124d3576124d261221c565b5b8235905067ffffffffffffffff8111156124f0576124ef612221565b5b60208301915083602082028301111561250c5761250b612226565b5b9250929050565b60008083601f8401126125295761252861221c565b5b8235905067ffffffffffffffff81111561254657612545612221565b5b60208301915083602082028301111561256257612561612226565b5b9250929050565b600080600080604085870312156125835761258261217e565b5b600085013567ffffffffffffffff8111156125a1576125a0612183565b5b6125ad878288016124bd565b9450945050602085013567ffffffffffffffff8111156125d0576125cf612183565b5b6125dc87828801612513565b925092505092959194509250565b600060208284031215612600576125ff61217e565b5b600061260e848285016121d1565b91505092915050565b600080fd5b6000610160828403121561263357612632612617565b5b81905092915050565b6000819050919050565b61264f8161263c565b811461265a57600080fd5b50565b60008135905061266c81612646565b92915050565b60008060006060848603121561268b5761268a61217e565b5b600084013567ffffffffffffffff8111156126a9576126a8612183565b5b6126b58682870161261c565b93505060206126c68682870161265d565b92505060406126d786828701612207565b9150509250925092565b6126ea816121e6565b82525050565b600060208201905061270560008301846126e1565b92915050565b600061271682612188565b9050919050565b6127268161270b565b811461273157600080fd5b50565b6000813590506127438161271d565b92915050565b600080604083850312156127605761275f61217e565b5b600061276e85828601612734565b925050602061277f85828601612207565b9150509250929050565b600080fd5b6000601f19601f8301169050919050565b7f4e487b7100000000000000000000000000000000000000000000000000000000600052604160045260246000fd5b6127d78261278e565b810181811067ffffffffffffffff821117156127f6576127f561279f565b5b80604052505050565b6000612809612174565b905061281582826127ce565b919050565b600067ffffffffffffffff8211156128355761283461279f565b5b61283e8261278e565b9050602081019050919050565b82818337600083830152505050565b600061286d6128688461281a565b6127ff565b90508281526020810184848401111561288957612888612789565b5b61289484828561284b565b509392505050565b600082601f8301126128b1576128b061221c565b5b81356128c184826020860161285a565b91505092915050565b600080604083850312156128e1576128e061217e565b5b60006128ef858286016121d1565b925050602083013567ffffffffffffffff8111156129105761290f612183565b5b61291c8582860161289c565b9150509250929050565b61292f8161263c565b82525050565b600060208201905061294a6000830184612926565b92915050565b612959816121a8565b82525050565b60006020820190506129746000830184612950565b92915050565b6000819050919050565b600061299f61299a61299584612188565b61297a565b612188565b9050919050565b60006129b182612984565b9050919050565b60006129c3826129a6565b9050919050565b6129d3816129b8565b82525050565b60006020820190506129ee60008301846129ca565b92915050565b60008060008060608587031215612a0e57612a0d61217e565b5b6000612a1c878288016121d1565b9450506020612a2d87828801612207565b935050604085013567ffffffffffffffff811115612a4e57612a4d612183565b5b612a5a8782880161222b565b925092505092959194509250565b60008083601f840112612a7e57612a7d61221c565b5b8235905067ffffffffffffffff811115612a9b57612a9a612221565b5b602083019150836020820283011115612ab757612ab6612226565b5b9250929050565b60008060008060008060008060a0898b031215612ade57612add61217e565b5b6000612aec8b828c016121d1565b9850506020612afd8b828c016121d1565b975050604089013567ffffffffffffffff811115612b1e57612b1d612183565b5b612b2a8b828c01612a68565b9650965050606089013567ffffffffffffffff811115612b4d57612b4c612183565b5b612b598b828c01612a68565b9450945050608089013567ffffffffffffffff811115612b7c57612b7b612183565b5b612b888b828c0161222b565b92509250509295985092959890939650565b60008060408385031215612bb157612bb061217e565b5b6000612bbf858286016121d1565b9250506020612bd0858286016121d1565b9150509250929050565b60008060008060008060a08789031215612bf757612bf661217e565b5b6000612c0589828a016121d1565b9650506020612c1689828a016121d1565b9550506040612c2789828a01612207565b9450506060612c3889828a01612207565b935050608087013567ffffffffffffffff811115612c5957612c58612183565b5b612c6589828a0161222b565b92509250509295509295509295565b600082825260208201905092915050565b7f77726f6e67206172726179206c656e6774687300000000000000000000000000600082015250565b6000612cbb601383612c74565b9150612cc682612c85565b602082019050919050565b60006020820190508181036000830152612cea81612cae565b9050919050565b7f4e487b7100000000000000000000000000000000000000000000000000000000600052603260045260246000fd5b600080fd5b600080fd5b600080fd5b60008083356001602003843603038112612d4c57612d4b612d20565b5b80840192508235915067ffffffffffffffff821115612d6e57612d6d612d25565b5b602083019250600182023603831315612d8a57612d89612d2a565b5b509250929050565b7f4e487b7100000000000000000000000000000000000000000000000000000000600052601160045260246000fd5b6000612dcc826121e6565b91507fffffffffffffffffffffffffffffffffffffffffffffffffffffffffffffffff8203612dfe57612dfd612d92565b5b600182019050919050565b7f46756e6374696f6e206d7573742062652063616c6c6564207468726f7567682060008201527f64656c656761746563616c6c0000000000000000000000000000000000000000602082015250565b6000612e65602c83612c74565b9150612e7082612e09565b604082019050919050565b60006020820190508181036000830152612e9481612e58565b9050919050565b7f46756e6374696f6e206d7573742062652063616c6c6564207468726f7567682060008201527f6163746976652070726f78790000000000000000000000000000000000000000602082015250565b6000612ef7602c83612c74565b9150612f0282612e9b565b604082019050919050565b60006020820190508181036000830152612f2681612eea565b9050919050565b612f368161270b565b82525050565b6000604082019050612f516000830185612f2d565b612f5e60208301846126e1565b9392505050565b7f657363617065206973206e6f7420736574000000000000000000000000000000600082015250565b6000612f9b601183612c74565b9150612fa682612f65565b602082019050919050565b60006020820190508181036000830152612fca81612f8e565b9050919050565b7f555550535570677261646561626c653a206d757374206e6f742062652063616c60008201527f6c6564207468726f7567682064656c656761746563616c6c0000000000000000602082015250565b600061302d603883612c74565b915061303882612fd1565b604082019050919050565b6000602082019050818103600083015261305c81613020565b9050919050565b7f7365636f6e644f776e657220616c726561647920736574000000000000000000600082015250565b6000613099601783612c74565b91506130a482613063565b602082019050919050565b600060208201905081810360008301526130c88161308c565b9050919050565b6000815190506130de816121f0565b92915050565b6000602082840312156130fa576130f961217e565b5b6000613108848285016130cf565b91505092915050565b7f496e697469616c697a61626c653a20636f6e747261637420697320616c72656160008201527f647920696e697469616c697a6564000000000000000000000000000000000000602082015250565b600061316d602e83612c74565b915061317882613111565b604082019050919050565b6000602082019050818103600083015261319c81613160565b9050919050565b6000819050919050565b600060ff82169050919050565b60006131d56131d06131cb846131a3565b61297a565b6131ad565b9050919050565b6131e5816131ba565b82525050565b600060208201905061320060008301846131dc565b92915050565b7f6163636f756e743a206e6f74204f776e6572206f7220456e747279506f696e74600082015250565b600061323c602083612c74565b915061324782613206565b602082019050919050565b6000602082019050818103600083015261326b8161322f565b9050919050565b600081519050919050565b600081905092915050565b60005b838110156132a657808201518184015260208101905061328b565b60008484015250505050565b60006132bd82613272565b6132c7818561327d565b93506132d7818560208601613288565b80840191505092915050565b60006132ef82846132b2565b915081905092915050565b60008151905061330981612646565b92915050565b6000602082840312156133255761332461217e565b5b6000613333848285016132fa565b91505092915050565b7f45524331393637557067726164653a206e657720696d706c656d656e7461746960008201527f6f6e206973206e6f742055555053000000000000000000000000000000000000602082015250565b6000613398602e83612c74565b91506133a38261333c565b604082019050919050565b600060208201905081810360008301526133c78161338b565b9050919050565b7f45524331393637557067726164653a20756e737570706f727465642070726f7860008201527f6961626c65555549440000000000000000000000000000000000000000000000602082015250565b600061342a602983612c74565b9150613435826133ce565b604082019050919050565b600060208201905081810360008301526134598161341d565b9050919050565b7f6163636f756e743a206e6f742066726f6d20456e747279506f696e7400000000600082015250565b6000613496601c83612c74565b91506134a182613460565b602082019050919050565b600060208201905081810360008301526134c581613489565b9050919050565b60006bffffffffffffffffffffffff82169050919050565b60006134ef826134cc565b91506bffffffffffffffffffffffff820361350d5761350c612d92565b5b600182019050919050565b7f6163636f756e743a20696e76616c6964206e6f6e636500000000000000000000600082015250565b600061354e601683612c74565b915061355982613518565b602082019050919050565b6000602082019050818103600083015261357d81613541565b9050919050565b50565b600061359460008361327d565b915061359f82613584565b600082019050919050565b60006135b582613587565b9150819050919050565b7f6f6e6c79206f776e657200000000000000000000000000000000000000000000600082015250565b60006135f5600a83612c74565b9150613600826135bf565b602082019050919050565b60006020820190508181036000830152613624816135e8565b9050919050565b7f6f6e6c7920504b50000000000000000000000000000000000000000000000000600082015250565b6000613661600883612c74565b915061366c8261362b565b602082019050919050565b6000602082019050818103600083015261369081613654565b9050919050565b7f6163636f756e743a206e6f742074686973206f7220456e747279506f696e7400600082015250565b60006136cd601f83612c74565b91506136d882613697565b602082019050919050565b600060208201905081810360008301526136fc816136c0565b9050919050565b7f455243313936373a206e657720696d706c656d656e746174696f6e206973206e60008201527f6f74206120636f6e747261637400000000000000000000000000000000000000602082015250565b600061375f602d83612c74565b915061376a82613703565b604082019050919050565b6000602082019050818103600083015261378e81613752565b9050919050565b600081905092915050565b7f19457468657265756d205369676e6564204d6573736167653a0a333200000000600082015250565b60006137d6601c83613795565b91506137e1826137a0565b601c82019050919050565b6000819050919050565b6138076138028261263c565b6137ec565b82525050565b6000613818826137c9565b915061382482846137f6565b60208201915081905092915050565b7f4e487b7100000000000000000000000000000000000000000000000000000000600052602160045260246000fd5b7f45434453413a20696e76616c6964207369676e61747572650000000000000000600082015250565b6000613898601883612c74565b91506138a382613862565b602082019050919050565b600060208201905081810360008301526138c78161388b565b9050919050565b7f45434453413a20696e76616c6964207369676e6174757265206c656e67746800600082015250565b6000613904601f83612c74565b915061390f826138ce565b602082019050919050565b60006020820190508181036000830152613933816138f7565b9050919050565b7f45434453413a20696e76616c6964207369676e6174757265202773272076616c60008201527f7565000000000000000000000000000000000000000000000000000000000000602082015250565b6000613996602283612c74565b91506139a18261393a565b604082019050919050565b600060208201905081810360008301526139c581613989565b9050919050565b6139d5816131ad565b82525050565b60006080820190506139f06000830187612926565b6139fd60208301866139cc565b613a0a6040830185612926565b613a176060830184612926565b95945050505050565b7f416464726573733a2063616c6c20746f206e6f6e2d636f6e7472616374000000600082015250565b6000613a56601d83612c74565b9150613a6182613a20565b602082019050919050565b60006020820190508181036000830152613a8581613a49565b9050919050565b600081519050919050565b6000613aa282613a8c565b613aac8185612c74565b9350613abc818560208601613288565b613ac58161278e565b840191505092915050565b60006020820190508181036000830152613aea8184613a97565b90509291505056fe416464726573733a206c6f772d6c6576656c2064656c65676174652063616c6c206661696c6564a2646970667358221220cc2d996f8e0723a56fc38bf733dbe0ecad5313bfff93eda8aa3f3edb476448b964736f6c63430008130033",
  "immutableReferences": {
    "731": [
      {
        "length": 32,
        "start": 2005
      },
      {
        "length": 32,
        "start": 2147
      },
      {
        "length": 32,
        "start": 2975
      },
      {
        "length": 32,
        "start": 3117
      },
      {
        "length": 32,
        "start": 3293
      }
    ],
    "9073": [
      {
        "length": 32,
        "start": 3602
      },
      {
        "length": 32,
        "start": 6835
      }
    ]
  },
  "source": "// SPDX-License-Identifier: GPL-3.0\npragma solidity 0.8.19;\n\n/* solhint-disable avoid-low-level-calls */\n/* solhint-disable no-inline-assembly */\n/* solhint-disable reason-string */\n\nimport '@openzeppelin/contracts/utils/cryptography/ECDSA.sol';\nimport '@openzeppelin/contracts/proxy/utils/Initializable.sol';\nimport '@openzeppelin/contracts/proxy/utils/UUPSUpgradeable.sol';\n\nimport '../core/BaseAccount.sol';\nimport './callback/TokenCallbackHandler.sol';\n\n/**\n * minimal account.\n *  this is sample minimal account.\n *  has execute, eth handling methods\n *  has a single signer that can send requests through the entryPoint.\n */\ncontract WalletAccount is\n  BaseAccount,\n  TokenCallbackHandler,\n  UUPSUpgradeable,\n  Initializable\n{\n  using ECDSA for bytes32;\n\n  //filler member, to push the nonce and owner to the same slot\n  // the \"Initializeble\" class takes 2 bytes in the first slot\n  bytes28 private _filler;\n\n  //explicit sizes of nonce, to fit a single storage cell with \"owner\"\n  uint96 private _nonce;\n  address public owner;\n  // 2\n  address public secondOwner;\n  // PKP\n  address public pkpAddress;\n  // \n  address public escapeAddress;\n\n  event SecondOwner(address secondOwner);\n\n  IEntryPoint private immutable _entryPoint;\n\n  event SimpleAccountInitialized(\n    IEntryPoint indexed entryPoint,\n    address indexed owner\n  );\n\n  modifier onlyOwner() {\n    _onlyOwner();\n    _;\n  }\n\n  /// @inheritdoc BaseAccount\n  function nonce() public view virtual override returns (uint256) {\n    return _nonce;\n  }\n\n  /// @inheritdoc BaseAccount\n  function entryPoint() public view virtual override returns (IEntryPoint) {\n    return _entryPoint;\n  }\n\n  // solhint-disable-next-line no-empty-blocks\n  receive() external payable {}\n\n  constructor(IEntryPoint anEntryPoint) {\n    _entryPoint = anEntryPoint;\n    _disableInitializers();\n  }\n\n  function _onlyOwner() internal view {\n    //directly from EOA owner, or through the account itself (which gets redirected through execute())\n    require(msg.sender == owner || msg.sender == address(this), 'only owner');\n  }\n\n  /**\n   * execute a transaction (called directly from owner, or by entryPoint)\n   */\n  function execute(address dest, uint256 value, bytes calldata func) external {\n    _requireFromEntryPointOrOwner();\n    _call(dest, value, func);\n  }\n\n  /**\n   * execute a sequence of transactions\n   */\n  function executeBatch(\n    address[] calldata dest,\n    bytes[] calldata func\n  ) external {\n    _requireFromEntryPointOrOwner();\n    require(dest.length == func.length, 'wrong array lengths');\n    for (uint256 i = 0; i < dest.length; i++) {\n      _call(dest[i], 0, func[i]);\n    }\n  }\n\n  // function getUserOperationHash(UserOperation calldata userOp) public pure returns (bytes32) {\n  //   return keccak256(abi.encodePacked(userOp));\n  // }\n\n  //   function getEthSignedMessageHash(bytes32 _messageHash)\n  //       public\n  //       pure\n  //       returns (bytes32)\n  //   {\n  //       return\n  //           keccak256(\n  //               abi.encodePacked(\"\\x19Ethereum Signed Message:\\n32\", _messageHash)\n  //           );\n  //   }\n  /**\n   * @dev The _entryPoint member is immutable, to reduce gas consumption.  To upgrade EntryPoint,\n   * a new implementation of SimpleAccount must be deployed with the new EntryPoint address, then upgrading\n   * the implementation by calling `upgradeTo()`\n   */\n  function initialize(address anOwner) public virtual initializer {\n    _initialize(anOwner);\n  }\n\n  function _initialize(address anOwner) internal virtual {\n    owner = anOwner;\n    emit SimpleAccountInitialized(_entryPoint, owner);\n  }\n\n  // 2\n  function setSecondOwner(address _secondOwner) external {\n    _onlyOwner();\n    // TODO: enable changing secondOwner\n    require(secondOwner == address(0), 'secondOwner already set');\n    secondOwner = _secondOwner;\n    emit SecondOwner(secondOwner);\n  }\n\n  // \n  // function setEscapeAddress(address _escapeAddress) external {\n  //   _requireFromEntryPointOrThis();\n  //   escapeAddress = _escapeAddress;\n  // }\n  // PKP\n  // function setPKPAddress(address _pkpAddress) external {\n  //   _requireFromEntryPointOrThis();\n  //   pkpAddress = _pkpAddress;\n  // }\n\n  function setupSocialRecovery(\n    address _escapeAddress,\n    address _pkpAddress\n  ) external {\n    _requireFromEntryPointOrThis();\n    escapeAddress = _escapeAddress;\n    pkpAddress = _pkpAddress;\n  }\n\n  function executeSocialRecovery() external {\n    _onlyPKP();\n    require(escapeAddress != address(0), 'escape is not set');\n    payable(escapeAddress).transfer(address(this).balance);\n    // ERC20\n    // IEC20(address).transfer(escapeAddress, 0);\n    // ERC721\n    //IEC721(address).transferFrom(address(this), escapeAddress, 0);\n  }\n\n  function _onlyPKP() internal view {\n    require(msg.sender == pkpAddress, 'only PKP');\n  }\n\n  // Require the function call went through EntryPoint or owner\n  function _requireFromEntryPointOrOwner() internal view {\n    require(\n      msg.sender == address(entryPoint()) || msg.sender == owner,\n      'account: not Owner or EntryPoint'\n    );\n  }\n\n  function _requireFromEntryPointOrThis() internal view {\n    require(\n      msg.sender == address(entryPoint()) || msg.sender == address(this),\n      'account: not this or EntryPoint'\n    );\n  }\n\n  /// implement template method of BaseAccount\n  function _validateAndUpdateNonce(\n    UserOperation calldata userOp\n  ) internal override {\n    require(_nonce++ == userOp.nonce, 'account: invalid nonce');\n  }\n\n  /// implement template method of BaseAccount\n  function _validateSignature(\n    UserOperation calldata userOp,\n    bytes32 userOpHash\n  ) internal virtual override returns (uint256 validationData) {\n    // second ownervalidate\n    if (secondOwner == address(0)) {\n      bytes32 hash = userOpHash.toEthSignedMessageHash();\n      if (owner != hash.recover(userOp.signature)) return SIG_VALIDATION_FAILED;\n      return 0;\n    }\n    // second ownermultisigvalidate\n    // ownersignaturesecondOwnersignature\n    // bytes\n    // secondOwnervalidate\n\n    // (bytes memory signature1, bytes memory signature2) = extractECDSASignature(userOp.signature);\n    // bytes32 hash = userOpHash.toEthSignedMessageHash();\n    // if (owner != hash.recover(signature1)) return SIG_VALIDATION_FAILED;\n    //   return SIG_VALIDATION_FAILED;\n    // if (secondOwner != hash.recover(signature2)) return SIG_VALIDATION_FAILED;\n    //   return SIG_VALIDATION_FAILED;\n    return 0;\n  }\n\n  // \n  // \n  // function extractECDSASignature(bytes memory _fullSignature) private pure returns (bytes memory signature1, bytes memory signature2) {\n  //   require(_fullSignature.length == 130, \"Invalid length\");\n\n  //   signature1 = new bytes(65);\n  //   signature2 = new bytes(65);\n\n  //   // Copying the first signature. Note, that we need an offset of 0x20\n  //   // since it is where the length of the `_fullSignature` is stored\n  //   assembly {\n  //       let r := mload(add(_fullSignature, 0x20))\n  // let s := mload(add(_fullSignature, 0x40))\n  // let v := and(mload(add(_fullSignature, 0x41)), 0xff)\n\n  //       mstore(add(signature1, 0x20), r)\n  //       mstore(add(signature1, 0x40), s)\n  //       mstore8(add(signature1, 0x60), v)\n  //   }\n\n  //   // Copying the second signature.\n  //   assembly {\n  //       let r := mload(add(_fullSignature, 0x61))\n  //       let s := mload(add(_fullSignature, 0x81))\n  //       let v := and(mload(add(_fullSignature, 0x82)), 0xff)\n\n  //       mstore(add(signature2, 0x20), r)\n  //       mstore(add(signature2, 0x40), s)\n  //       mstore8(add(signature2, 0x60), v)\n  //   }\n  //   require(_fullSignature.length == 264, \"Invalid length\");\n\n  // signature1 = new bytes(132);\n  // signature2 = new bytes(132);\n\n  //   for (uint256 i = 0; i < 132; i++) {\n  //       signature1[i] = _fullSignature[i];\n  //   }\n\n  //   // Copying the second signature.\n  //   for (uint256 i = 0; i < 132; i++) {\n  //       signature2[i] = _fullSignature[i + 132];\n  //   }\n  // }\n  // TODO: Social Recovery\n  /*\n  // Social RecoveryLit Action\n  address public recoverySigAddress;\n  // Social Recovery\n  address public recoverySendTo;\n  // Social RecoveryLens Publication ID\n  string public targetPubId;\n  // Social RecoveryLens User ID\n  string[] public guardians;\n  // Social RecoveryGuardian\n  // int8 public minGuardiansNum;\n\n  function socialRecoveryExecute(\n    string _targetPubId,\n    string[] _guardians,\n    bytes calldata signature\n  ) external {\n    // TODO: Validation\n    // Stringarrayhashhash\n    // https://fravoll.github.io/solidity-patterns/string_equality_comparison.html\n    bytes32 messageHash = prefixed(\n      keccak256(abi.encodePacked(_targetPubId, _guardians))\n    );\n    address signer = ECDSA.recover(messageHash, signature);\n    require(\n      _targetPubId == targetPubId && _guardians == guardians,\n      'invalid signature'\n    );\n    require(signer == recoverySigAddress, 'invalid signature');\n    // TODO: recoverySendTo\n  }\n*/\n\n  function _call(address target, uint256 value, bytes memory data) internal {\n    (bool success, bytes memory result) = target.call{value: value}(data);\n    if (!success) {\n      assembly {\n        revert(add(result, 32), mload(result))\n      }\n    }\n  }\n\n  /**\n   * check current account deposit in the entryPoint\n   */\n  function getDeposit() public view returns (uint256) {\n    return entryPoint().balanceOf(address(this));\n  }\n\n  /**\n   * deposit more funds for this account in the entryPoint\n   */\n  function addDeposit() public payable {\n    entryPoint().depositTo{value: msg.value}(address(this));\n  }\n\n  /**\n   * withdraw value from the account's deposit\n   * @param withdrawAddress target to send to\n   * @param amount to withdraw\n   */\n  function withdrawDepositTo(\n    address payable withdrawAddress,\n    uint256 amount\n  ) public onlyOwner {\n    entryPoint().withdrawTo(withdrawAddress, amount);\n  }\n\n  function _authorizeUpgrade(address newImplementation) internal view override {\n    (newImplementation);\n    _onlyOwner();\n  }\n}\n",
  "sourcePath": "/Users/Nobu/Documents/Works/MyProject/bailout/account-abstraction/contracts/samples/WalletAccount.sol",
  "compiler": {
    "name": "solc",
    "version": "0.8.19+commit.7dd6d404.Emscripten.clang"
  },
  "schemaVersion": "3.4.13",
  "updatedAt": "2023-04-15T06:01:03.361Z",
  "devdoc": {
    "events": {
      "AdminChanged(address,address)": {
        "details": "Emitted when the admin account has changed."
      },
      "BeaconUpgraded(address)": {
        "details": "Emitted when the beacon is changed."
      },
      "Initialized(uint8)": {
        "details": "Triggered when the contract has been initialized or reinitialized."
      },
      "Upgraded(address)": {
        "details": "Emitted when the implementation is upgraded."
      }
    },
    "kind": "dev",
    "methods": {
      "initialize(address)": {
        "details": "The _entryPoint member is immutable, to reduce gas consumption.  To upgrade EntryPoint, a new implementation of SimpleAccount must be deployed with the new EntryPoint address, then upgrading the implementation by calling `upgradeTo()`"
      },
      "proxiableUUID()": {
        "details": "Implementation of the ERC1822 {proxiableUUID} function. This returns the storage slot used by the implementation. It is used to validate the implementation's compatibility when performing an upgrade. IMPORTANT: A proxy pointing at a proxiable contract should not be considered proxiable itself, because this risks bricking a proxy that upgrades to it, by delegating to itself until out of gas. Thus it is critical that this function revert if invoked through a proxy. This is guaranteed by the `notDelegated` modifier."
      },
      "supportsInterface(bytes4)": {
        "details": "Returns true if this contract implements the interface defined by `interfaceId`. See the corresponding https://eips.ethereum.org/EIPS/eip-165#how-interfaces-are-identified[EIP section] to learn more about how these ids are created. This function call must use less than 30 000 gas."
      },
      "upgradeTo(address)": {
        "details": "Upgrade the implementation of the proxy to `newImplementation`. Calls {_authorizeUpgrade}. Emits an {Upgraded} event."
      },
      "upgradeToAndCall(address,bytes)": {
        "details": "Upgrade the implementation of the proxy to `newImplementation`, and subsequently execute the function call encoded in `data`. Calls {_authorizeUpgrade}. Emits an {Upgraded} event."
      },
      "withdrawDepositTo(address,uint256)": {
        "params": {
          "amount": "to withdraw",
          "withdrawAddress": "target to send to"
        }
      }
    },
    "version": 1
  },
  "userdoc": {
    "kind": "user",
    "methods": {
      "addDeposit()": {
        "notice": "deposit more funds for this account in the entryPoint"
      },
      "entryPoint()": {
        "notice": "return the entryPoint used by this account. subclass should return the current entryPoint used by this account."
      },
      "execute(address,uint256,bytes)": {
        "notice": "execute a transaction (called directly from owner, or by entryPoint)"
      },
      "executeBatch(address[],bytes[])": {
        "notice": "execute a sequence of transactions"
      },
      "getDeposit()": {
        "notice": "check current account deposit in the entryPoint"
      },
      "nonce()": {
        "notice": "return the account nonce. subclass should return a nonce value that is used both by _validateAndUpdateNonce, and by the external provider (to read the current nonce)"
      },
      "validateUserOp((address,uint256,bytes,bytes,uint256,uint256,uint256,uint256,uint256,bytes,bytes),bytes32,uint256)": {
        "notice": "Validate user's signature and nonce. subclass doesn't need to override this method. Instead, it should override the specific internal validation methods."
      },
      "withdrawDepositTo(address,uint256)": {
        "notice": "withdraw value from the account's deposit"
      }
    },
    "notice": "minimal account.  this is sample minimal account.  has execute, eth handling methods  has a single signer that can send requests through the entryPoint.",
    "version": 1
  }
}